:10000000004000201D0B0000413500004935000074
:100010003935000039350000393500003935000028
:100020003935000039350000393500005135000000
:100030003935000039350000593500008571000060
:10004000314400003B440000454400004F440000A0
:100050005944000061350000693500007135000029
:100060007935000081350000C5560000E5560000D6
:10007000893500009135000099350000A135000058
:10008000A9350000F3560000B135000039350000F5
:10009000B9350000C1350000C9350000D135000078
:1000A000716700007B670000D9350000E135000072
:1000B000E9350000F1350000F93500000136000097
:1000C000401800002E1800000C1800003618000020
:1000D0000C1800000E1B00000C1800003618000061
:1000E0002E1800002E1800000E1B0000361800000D
:1000F000F8170000F8170000F8170000841B000034
:100100004E2000000C2000000C2000000820000001
:1001100012200000122000001E2300000820000012
:10012000122000001E230000122000000820000002
:10013000B2220000B2220000B22200008823000098
:1001400052494748540000004F4646004C4546542B
:100150000000000048415A41524400004F4E200028
:100160003E3E3E2048415A415244204F4E20203CC2
:100170003C3C00002020205B5052494F3A2054550F
:10018000524E5D20202000003E3E3E20524947480E
:1001900054205455524E203C3C3C0000205B5954A6
:1001A0004D205249474854204C414D505D2000009D
:1001B000434D443A20543A252D367320503A257346
:1001C000000000002D2D2D20504F53204C49474852
:1001D00054204F4E202D00002D2D2D20414C4C2021
:1001E0004C414D5053204F46462D000054583A255F
:1001F000303475202052583A253034750000000004
:100200000D0A3D3D3D3D3D3D3D3D3D3D3D3D3D3D81
:100210003D3D3D3D3D3D3D3D3D3D3D3D3D3D3D3D0E
:100220003D3D3D3D3D3D3D3D3D3D0D0A0000000055
:10023000202059756E54752059544D333242314C3B
:100240004530205269676874204C616D70204543C9
:100250005520537461727465640D0A0020204C6946
:100260007374656E696E672042434D20436D642050
:1002700028307831303029204020353030206B62F2
:1002800070730D0A000000002020506572696F64D1
:10029000696320466565646261636B2052696768C3
:1002A000744C616D705F537461747573202830787D
:1002B000323032290D0A00003D3D3D3D3D3D3D3D82
:1002C0003D3D3D3D3D3D3D3D3D3D3D3D3D3D3D3D5E
:1002D0003D3D3D3D3D3D3D3D3D3D3D3D3D3D3D3D4E
:1002E0000D0A00005B4552524F525D2043414E20A3
:1002F000496E6974204661696C65643A20307825DE
:10030000780D0A005B53573120434C49434B5D2025
:100310005269676874205475726E204C69676874FE
:1003200020416374697661746564210D0A000000E0
:100330005B53573120434C49434B5D2048617A6100
:100340007264205761726E696E67204163746976CA
:1003500061746564210D0A005B53573120434C4999
:10036000434B5D205475726E205369676E616C203B
:100370005475726E6564204F46462E0D0A000000CB
:100380005B42434D20525820283078313030295D6F
:10039000205475726E436D643D25752C20506F732B
:1003A000436D643D25752C20526F6C6C436E743D1B
:1003B00025750D0A00000000000000000800000084
:1003C0000000000000000000080000000000000025
:1003D000000000000000005F00000007000700149C
:1003E0007F147F14242A7F2A12231308646236495B
:1003F0005522500005030000001C2241000041224C
:100400001C0014083E081408083E0808005030007C
:1004100000080808080800606000002010080402B6
:100420003E5149453E00427F4000426151494621CC
:1004300041454B311814127F1027454545393C4A38
:100440004949300171090503364949493606494988
:10045000291E0036360000005636000008142241DE
:100460008014141414148041221408020151090646
:10047000324979413E7E1111117E7F494949363E0C
:10048000414141227F4141221C7F494949417F0925
:100490000909013E4149497A7F0808087F00417FE8
:1004A00041002040413F017F081422417F404040ED
:1004B000407F020C027F7F0408107F3E4141413E95
:1004C0007F090909063E4151215E7F0919294646E7
:1004D0004949493101017F01013F4040403F1F2010
:1004E00040201F3F4038403F6314081463070870E2
:1004F00008076151494543007F414100020408104B
:10050000200041417F00040201020440404040407D
:10051000000102040020545454787F484444383881
:1005200044444420384444487F3854545418087E86
:100530000901020C5252523E7F0804047800447DA7
:1005400040002040443D007F1028440000417F408F
:10055000007C041804787C08040478384444443847
:100560007C14141408081414187C7C08040408482B
:1005700054545420043F4440203C4040207C1C20E4
:1005800040201C3C4030403C44281028440C505033
:10059000503C4464544C44000836410000007F0045
:1005A000000041360800100808100800AED580A8E9
:1005B0003FD300408D142000A1C8DA12817FD9F109
:1005C000DB40A4A6AF0000000101000F00090101FB
:1005D0008007800400000100000000000100060008
:1005E00000366E0100000000000000000000000066
:1005F00000800000000001010001010000D0044063
:1006000000000000000000000100000000000000E9
:1006100000F400400000000000B0044008000000AA
:1006200000000000020000000000000000F2004096
:100630000000000000B004400900000000000000BD
:10064000020000000000000000F200400000000076
:1006500000B004400600000000000000050000009B
:100660000000000000F200400000000000B0044064
:10067000070000000000000005000000000000006E
:1006800000F200400000000000D00440060000001E
:1006900000000000010000000000000000F4004025
:1006A0000100000000C00440010000000000000044
:1006B000050000000000000000F300400000000002
:1006C00000C0044000000000000000000500000021
:1006D0000000000000F3004000000000C000002007
:1006E000A8850000A885000001000000C0000020CF
:1006F000A8850000E885000001000000200000003F
:1007000000000000000000000400000007000000DE
:1007100001000000020000000100000006000000CF
:1007200002000000010000000000000001000000C5
:10073000000000003C000001A08601000000000055
:1007400000010000000000000000000000C20100E5
:1007500000000101000000009C3700006637000027
:100760007E370000843700008C370000943700008B
:1007700008000E000F001800200024002C002D009F
:100780002E0032003700380039003A003B003D00AF
:100790004000480049004A004B004C004D00520008
:1007A00063006400660067006A006B006C00730001
:1007B00077007D007F00800081008200830084003C
:1007C000850086008700880089000000584E0000E0
:1007D0005C4E0000604E0000644E0000684E000059
:1007E0006C4E0000704E00007851000092510000E5
:1007F0009C510000665100006C5100000001020392
:100800000405060708090909090A0A0A0A0B0B0B5D
:100810000B0C0C0C0C0D0D0D0D0D0D0D0D0E0E0E0B
:100820000E0E0E0E0E0E0E0E0E0E0E0E0E0F0F0FE5
:100830000F0F0F0F0F0F0F0F0F0F0F0F0F000000F5
:1008400000600640007006401A1B00002D2C0908AD
:100850001819000000A0064000B0064000C0064085
:100860001C1D1E001F1E1700666E692B0000000075
:10087000666E69006E616E00666E692D0000000094
:10088000447F0000627F0000787F0000627F0000EC
:100890002A7F0000627F0000627F0000627F00000C
:1008A000627F0000627F0000627F0000627F0000C4
:1008B0005A7F0000627F0000627F0000627F0000BC
:1008C000627F0000627F0000827F0000947E000053
:1008D000447E0000447E00009A7E0000447E0000BA
:1008E000447E0000447E0000447E0000447E000000
:1008F000447E0000447E00008E7E0000447E0000A6
:10090000887E0000447E0000447E00006E7E000071
:10091000C6830000DA830000DA830000DA83000077
:10092000DA830000DA830000DA830000DA83000053
:10093000DA830000DA830000DA830000DA83000043
:10094000DA830000DA830000DA830000DA83000033
:10095000DA830000DA830000DA830000DA83000023
:10096000DA830000DA830000DA830000DA83000013
:10097000DA830000DA830000DA830000DA83000003
:10098000DA830000DA830000DA830000DA830000F3
:100990007C810000328100007C810000DA8300004D
:1009A000DA830000DA830000DA830000DA830000D3
:1009B000DA830000DA830000DA830000DA830000C3
:1009C000DA830000DA830000DA830000DA830000B3
:1009D000DA830000DA830000DA8300008C7F0000F5
:1009E000DA830000DA830000DA830000DA83000093
:1009F000DA830000DA830000DA830000DA83000083
:100A0000DA8300008C7F0000CC8100008C7F000026
:100A10007C810000328100007C810000DA830000CC
:100A20008C7F0000DA830000DA830000DA830000A4
:100A3000DA830000DA8300008C7F000096830000D8
:100A4000DA830000DA8300005E820000DA830000AF
:100A50008C7F0000DA830000DA8300008C7F0000C6
:100A6000000000000000F03F0000000000002440F3
:100A700000000000000059400000000000408F40CE
:100A8000000000000088C34000000000006AF84039
:100A90000000000080842E4100000000D01263415D
:100AA0000000000084D797410000000065CDCD41D3
:100AB00011490C68114B1C401149124A521A013A53
:100AC00004DD1148104B09C1083AFCDA0F49104AFD
:100AD000521A013A04DD0C480B4B09C1083AFCDA02
:100AE0000C490D4A521A013A04DD0748064B09C168
:100AF000083AFCDA7047000000F0074001000000EF
:100B000000000020C00000205A5A5A5A003C002021
:100B100000400020C0000020003C002072B60E49BA
:100B20000D4A0D4B0C4C0C4D0B4E0B4FB846B946B5
:100B3000BA46BB46BC46FFF7BBFF08488546084897
:100B4000804708488047084880470848804762B681
:100B500002F04EF9FEE70000000000000040002017
:100B6000F5330000FD34000011710000F93400007D
:100B7000002243088B4274D303098B425FD3030ADC
:100B80008B4244D3030B8B4228D3030C8B420DD3EF
:100B9000FF22090212BA030C8B4202D3121209027D
:100BA00065D0030B8B4219D300E0090AC30B8B42BB
:100BB00001D3CB03C01A5241830B8B4201D38B0369
:100BC000C01A5241430B8B4201D34B03C01A52410E
:100BD000030B8B4201D30B03C01A5241C30A8B4251
:100BE00001D3CB02C01A5241830A8B4201D38B023C
:100BF000C01A5241430A8B4201D34B02C01A5241E0
:100C0000030A8B4201D30B02C01A5241CDD2C30951
:100C10008B4201D3CB01C01A524183098B4201D3CD
:100C20008B01C01A524143098B4201D34B01C01AB8
:100C3000524103098B4201D30B01C01A5241C30830
:100C40008B4201D3CB00C01A524183088B4201D39F
:100C50008B00C01A524143088B4201D34B00C01A8B
:100C60005241411A00D20146524110467047FFE7F7
:100C700001B5002000F0F0F802BDC0460029F7D011
:100C800076E7704703460B437FD4002243088B422C
:100C900074D303098B425FD3030A8B4244D3030B03
:100CA0008B4228D3030C8B420DD3FF22090212BAC8
:100CB000030C8B4202D31212090265D0030B8B4244
:100CC00019D300E0090AC30B8B4201D3CB03C01A2E
:100CD0005241830B8B4201D38B03C01A5241430B09
:100CE0008B4201D34B03C01A5241030B8B4201D3F9
:100CF0000B03C01A5241C30A8B4201D3CB02C01A64
:100D00005241830A8B4201D38B02C01A5241430ADB
:100D10008B4201D34B02C01A5241030A8B4201D3CA
:100D20000B02C01A5241CDD2C3098B4201D3CB0171
:100D3000C01A524183098B4201D38B01C01A524120
:100D400043098B4201D34B01C01A524103098B4224
:100D500001D30B01C01A5241C3088B4201D3CB000F
:100D6000C01A524183088B4201D38B00C01A5241F2
:100D700043088B4201D34B00C01A5241411A00D2A2
:100D800001465241104670475DE0CA0F00D049420B
:100D9000031000D34042534000229C4603098B427B
:100DA0002DD3030A8B4212D3FC22890112BA030A03
:100DB0008B420CD3890192118B4208D38901921185
:100DC0008B4204D389013AD0921100E08909C3090A
:100DD0008B4201D3CB01C01A524183098B4201D30C
:100DE0008B01C01A524143098B4201D34B01C01AF7
:100DF000524103098B4201D30B01C01A5241C3086F
:100E00008B4201D3CB00C01A524183088B4201D3DD
:100E10008B00C01A5241D9D243088B4201D34B00F8
:100E2000C01A5241411A00D20146634652415B103A
:100E3000104601D34042002B00D54942704763461B
:100E40005B1000D3404201B5002000F005F802BD60
:100E50000029F8D016E770477047C0468446100056
:100E600062468C461900634600E0C0461FB501F09B
:100E700017F8002801D40021C8421FBD10B500F0AA
:100E800067FF4042013010BD10B501F009F800289D
:100E900001DB002010BD012010BDC04610B500F0E0
:100EA000FFFF002801DD002010BD012010BDC0465D
:100EB00010B500F08FFF002801DC002010BD0120DC
:100EC00010BDC04610B500F085FF002801DA0020F3
:100ED00010BD012010BDC046002B11D1002A0FD13A
:100EE000002900D1002802D00021C943080007B41E
:100EF000024802A14018029003BDC0465DFFFFFFFB
:100F000003B4684601B5029800F024F8019B9E46A0
:100F100002B00CBC7047C04670B500220C4B0400F8
:100F20000D00FFF7CFFF002804D12000290001F0B9
:100F300019FE70BD064B00222000290001F080FA46
:100F400001F010FE80231B069C466044F1E7C0467A
:100F50000000E041F0B557464E464546DE46E0B556
:100F600004000D009246994683B08B4230D82DD0B4
:100F70004946504601F0A0FE29000600200001F07D
:100F80009BFE331A9846203B9B4633D45A46534621
:100F9000934042461F00534693401E00AF423AD84A
:100FA000AF4200D178E05B46A41BBD41002B00DAC4
:100FB00075E0002200230092019301235A469340DA
:100FC0000193012342469340009328E08242CFD907
:100FD00000220023009201930C9B002B01D01C6087
:100FE0005D600098019903B0F0BCBB46B246A946CB
:100FF000A046F0BD424620239B1A5246DA404146A5
:1010000013004A468A40170042461F435346934006
:101010001E00AF42C4D90022002300920193434630
:10102000002BD9D0FB0772081A4346467B080EE016
:10103000AB4201D1A2420CD8A41A9D41012024192F
:101040006D410021013E24184D41002E06D0AB42D7
:10105000EED9013E24196D41002EF8D10098019976
:101060005B4600196941002B24DB2B005A4644469D
:10107000D3402A00E2401C005B461500002B2ADB0F
:1010800026009E40330026004746BE403200801AAC
:101090009941009001919FE7A342BCD883E7424663
:1010A000202300219B1A0022009101920122DA40A4
:1010B000019286E7424620239B1A2A0046469A4020
:1010C0002300F340444613432A00E2401C005B46E1
:1010D0001500002BD4DA42462F002023260097402B
:1010E0009B1ADE403B003343CDE7C046F0B54F4688
:1010F0004646D6460D000400C0B51F001100280367
:10110000620F400A10437A00520DE3003C039146FF
:10111000640AFA0F4F0F6E0027439246B846760DC9
:10112000ED0FC900954200D199E04C46341BA4460E
:10113000002C00DC7CE04A46002A00D1B8E0C54A19
:10114000964200D11CE180223C0012041443A046C8
:101150006246382A00DD61E11F2A00DDCCE16446E9
:101160002022121B444694400F00A1466446914041
:10117000E7404C464A1E91413C4342462143644667
:10118000E240801A5C1AA3429B415F42C71B3B02AC
:1011900000D4D0E07F027F0A002F00D1FFE03800AA
:1011A00001F06CFD01000839202322005B1A8F40FA
:1011B000DA408C401743B14200DAFFE0891B4B1C38
:1011C0001F2B00DDA8E020223900D21A2000944015
:1011D0009140D840621E9441DF40002601430C43F9
:1011E000630709D00F232340042B05D0231DA342FE
:1011F000A44164423F191C003B0200D49EE0954B81
:1012000001369E4200D1B7E0934AE40817407B07BD
:1012100071057F0223433F0B4A0D12053A43ED0748
:101220002A4318001100E0BCBA46B146A846F0BDFA
:10123000002C4BD04C46A41BA446002E00D023E12A
:1012400004001C4300D1AFE16246541E012A00D1C4
:1012500015E2804DAC4500D1C8E1A4461BE14A46E9
:10126000B21A9446002A00DCACE04A46002A43D079
:10127000784A964200D1AFE180223C001204144328
:10128000A0466246382A67DC1F2A00DC5FE1474639
:10129000203AD7406246202A05D064464022121BDD
:1012A0004446944021434A1E91410C003C4357E080
:1012B0003A000A4300D105E12200013A012C00D195
:1012C00082E1644CA4455BD0944641E7634C771CB3
:1012D000274200D0C4E004001C43002E00D069E186
:1012E000002C00D1BFE144460C4300D0D0E14207BE
:1012F000DB081343C00829E03A000A4300D170E13B
:1013000062466446013A012C00D1E0E0514CA4450C
:1013100000D161E19446B4E73A001F39CA40110098
:10132000202B03D04022D31A9F403C43631E9C4194
:10133000002700260C43630700D053E7B446E408B7
:101340007B072343F808434A94451DD062460703B0
:1013500052053F0B520D60E744460C43621E944118
:10136000E4189C429B415F423F183B02E3D5394B56
:1013700001369E4200D0B5E03200002700234CE742
:101380004207DB081343C0081A00024300D1E1E121
:1013900080273F0307433F032E4A3F0B3DE72000D2
:1013A00001F06CFC010018311F2900DCFCE6083854
:1013B000844027000024B14200DBFFE6264A761A6B
:1013C00017400DE7002A2FD04A46921B9446002E64
:1013D00000D1ADE01F4A914500D10FE180221204F7
:1013E00010436246382A00DD0FE11F2A00DD80E14C
:1013F000644620221E00121B67460400934094405E
:10140000FE405A1E9341F84034431C438044641804
:101410008C42BF417F424E464744A6E742460A43BC
:1014200011004A1E9141ADE60C4C721C224200D0C4
:10143000A1E002001A43002E00D0FAE0002A00D1F9
:1014400045E13A000A4300D046E14207DB08134376
:10145000C0087BE7FF070000FFFF7FFFFE070000DB
:1014600047465C1AC21BA342BF417F42B9461700E0
:101470004A46BF1A3A0200D58DE023003B4300D014
:101480008AE60020002561E7B44CA14500D1ADE01B
:101490008024240420436446382C3DDC62461F2C03
:1014A00000DDB7E020251E002D1B0400AB40AC4042
:1014B000D640D04042465D1EAB413443121A90469E
:1014C00023432CE04207DB081343C0083BE75C18CA
:1014D0009C429B4140445B42C71801263B0200D41A
:1014E00029E702269E4A63081740012214401C4344
:1014F000FB071C437F0873E64446203AD44062460B
:10150000202A05D067464022D21B474697403943E0
:101510004A1E9141214335E60343581E8341CC1AAC
:10152000A142BF4143467F4255464E46DF1B2EE651
:1015300002001A4300D1BDE062466446013A012C24
:1015400000D1E5E0854CA44558D0944649E764466F
:101550002022121B444694400F00A146644691404D
:10156000E7404C464A1E91413C4342460C4361468B
:10157000CA408018F4E6794CA24200D1FDE6591821
:1015800099429B4140445F42C719FC074908160035
:101590000C437F08CFE6CC1AA142BF4143467F42AD
:1015A000181A5546C71BF7E5C9087B0755460B4374
:1015B000F808C8E6002C00D081E043460B4315D163
:1015C000802000250003E3E65C1AA3429B41C71B71
:1015D0005B420126FF1ADAE54207DB081343C00825
:1015E000D2E64207DB081343C008ACE64346424656
:1015F000C9085B0755460B43D008C5E6434642463B
:101600005B07C9080B43D008BEE603431C00631EFA
:101610009C41FCE60200203CE24014006246202A85
:1016200003D04025AD1AA8400343581E83412343ED
:1016300075E7002AE2D03A000A43CDD04207DB0822
:1016400013438022C0081203104206D0FC08144243
:1016500003D12000CB087A0713435A0FDB0052074F
:10166000DB08134390E643460B4300D109E74346AA
:101670004246C9085B0755460B43D00866E6CC1ABC
:10168000A14289413F1A4942554601267F1A7EE50B
:1016900042465C1A871AA34292415242BF1A3A024A
:1016A0003DD5CC1AA1428941434649421F1A5546AD
:1016B0007F1A95E57B07C9080B43F80843E64446C3
:1016C000DB080C4330D142071343C0085CE67B07BC
:1016D000C9080B43F80839E65C189C429B4140441A
:1016E0005B42C7183B0200D425E61D4B01261F4074
:1016F00021E60400203AD4406246202A04D0402249
:101700006646921B904003435A1E93411C437EE65B
:101710005C188C428941404449424718DDE6230069
:101720003B4300D1ADE606E6440723438024C008CE
:101730002403204208D04246D608264204D155460A
:101740003000CB0851070B435A0FDB00DB08520770
:10175000134319E60023014A1F005EE5FF0700005E
:10176000FFFF7FFFF0B557464E464546DE46E0B5E3
:10177000814605000C03480092461F0085B0240BEB
:10178000400DCE0F002800D156E1D44B984200D135
:1017900072E16B0FE4001C4380231B042343984633
:1017A000CF4BED009B4600239946834400933C03B6
:1017B0007B005046240B5B0DFF0F002B00D11FE177
:1017C000C64A934200D162E1C549420F8C46E4000B
:1017D00059461443802263441204CB1A14439B4697
:1017E000C200002033007B409A464B460F2B27D87F
:1017F000BC499B00CB589F46B246009B022B16D09B
:10180000032B00D18EE2012B00D0D9E0002300246D
:10181000002552461B052343D20713432800190015
:1018200005B0F0BCBB46B246A946A046F0BD0024B8
:101830000025AA4BEDE7BA46A04615000090DCE76C
:10184000444500D2C7E100D1C2E101235B429C467E
:101850002E0040460025E3442302140E1C431B0CBB
:10186000994623041F0C1202494600920197FFF784
:1018700005FA02007A430B04310C804619438A4270
:1018800007D901235B429C460919E0448C4200D8E9
:1018900007E2881A4946FFF7F1F909048C4631043A
:1018A0006646019A090C4243030031438A4204D937
:1018B0000919013B8C4200D8EDE1881A4246120416
:1018C0001A4390464146009B0E041B0C1F000293D6
:1018D000009B360C1B04190C0B007343120C7E4347
:1018E000039151437A431F0CBC4676186644B142BB
:1018F00003D9802149028C466244310C8A18310494
:101900001E04360C8E19904202D312D1B54210D269
:101910004346591E009B9C4665441F009D429B41C7
:101920005B421B19C018844200D2A0E100D19BE1A8
:101930008846AE1BB542AD41801A6D42401B8442C1
:1019400000D1D5E14946FFF799F9019A0B044243CA
:10195000310C050019438A4200D96CE1881A4946C6
:10196000FFF78CF9019A360442430904360C030050
:101970000E43B24200D953E10398B61A02002D0477
:101980001D43029F2B041B0C5A437B439C46290C8E
:101990004843130C844463447943984203D980201C
:1019A000400284466144180C12041B04120C4118B6
:1019B0009B188E4200D2FFE000D1FAE001231D43C4
:1019C000494A5A44002A00DCAAE06B0700D03DE1F6
:1019D000ED084346DB0106D54246444B1A4090468B
:1019E0008022D2005A44424B9A4200DD1FE7434610
:1019F0005B071D43434652055C02240B530D08E769
:101A00005246224300D17BE0002C00D1FAE02000B6
:101A100001F034F902000B3A1D2301009B1A5246D3
:101A20000839DA408C40144352468A40314B5844BE
:101A30009B4683440020D5E64B462343984644D03A
:101A4000002C00D1CEE0200001F018F901000200C6
:101A50000B391D235B1A49461000D94008388440D1
:101A60000B004D462343984685402348831A9B46E6
:101A70000023994600939AE64B46234398461DD18E
:101A800008239946063B0025834600938FE652467D
:101A9000224309D1022349461943184B89469C46E3
:101AA00000240220E3449DE603234A461A43134BD5
:101AB00091469C4652460320E34493E60C23994604
:101AC000093BA0468346009371E604239946002310
:101AD0009B4601330025009369E6C046FF070000DE
:101AE00001FCFFFFC0000000FF030000FFFFFFFE3E
:101AF000FE070000F30300000DFCFFFF01F8FFFFED
:101B00004946012319438946002401206AE600233F
:101B100080249A4600258A4B24037AE601256D42EB
:101B200001239B1A382B00DD70E61F2B00DCBFE081
:101B30001F2149428A1A4146D1400A00202B04D075
:101B40004146804B5B4499400D436B1E9D410723EA
:101B50002A431D0000241540134200D1D4E00F2178
:101B600000231140042900D1CBE0111D9142924184
:101B700052429B180A00190200D4C2E0012300243B
:101B8000002546E6802341461B03194208D01C422B
:101B900006D11C432403BA461500694B240B38E6D2
:101BA0008024434624031C432403B246644B240B85
:101BB0002FE6002B00D103E7A619681EA64200D22B
:101BC0008DE08E4200D2A3E000D1B3E00500F5E63F
:101BD000AA4200D939E64346DE0758086B081E437F
:101BE000ED0739E6484601F049F8010002001531D9
:101BF00020321C2900DC2CE74B46083883400025A6
:101C0000984632E701F03AF803001A001532203006
:101C10001C2A00DC00E75446083B00229C4005E7F4
:101C20003619013BB44200D9A6E6B24200D8A3E679
:101C3000831E3619A0E60919013D8C4200D98DE6B4
:101C40008A4200D88AE6851E091987E60F232B40B1
:101C5000042B00D1BCE605235B42AB429B4104351B
:101C60005B42ED089844B4E6AF4200D960E6824298
:101C700004D800D05CE6AE4200D859E602235B42AD
:101C80009C46009BE0449C4665449D429B415B42D0
:101C90001B19C0184DE68A4200D80EE6831E0919AA
:101CA0000BE68A4200D8F4E5831E98460919F0E550
:101CB0002549280059448D4042468A40691E8D417D
:101CC0004146D840D94002432A430B00510700D176
:101CD00051E70F211140042900D046E74BE70500EA
:101CE0008E4200D06AE6009A934200D066E667E62C
:101CF000164A5A44002A00DC10E7012300259844C4
:101D000067E65D075B021C0BD2080023154380E5E4
:101D10000098023D42008242BF417F423C19361981
:101D20000092DDE78024434624031C432403044B34
:101D3000240B6EE5009A9A42EAD30500D3E7C04629
:101D4000FF0700003E0400001E040000FF03000027
:101D5000F0B54E464546DE4657469046E0B517007C
:101D60001A03120B0500844619480E034C009146D5
:101D70005A00DB0F9B46360B640DC90F520D84428F
:101D800019D0824210D0012094420ED14E450CD180
:101D90000120C44509D1594517D0002C05D1300088
:101DA0002843431E984100E00120F0BCBB46B246E8
:101DB000A946A046F0BD330001202B43F5D1A24235
:101DC000F3D14B463B43F0D1E2E70020EDE7C046BC
:101DD000FF070000F0B54746CE4604001800160085
:101DE0001B031B0B2D4D4A00994680B543000F0382
:101DF000A446B0463F0B520DC90F5B0DC00FAA425F
:101E000021D0AB4213D0002A22D13C43002B02D177
:101E10004D462E4322D0002C10D0814222D00220E9
:101E2000013908400138C0BCB946B046F0BD4D4646
:101E30002E4329D1002AF0D13C43EED10028F2D123
:101E400001204042EFE73D0025431DD19342EED0F3
:101E5000002BE2D14C462643DFD1E0E70020002CE6
:101E6000E1D0DCE79A420ADCE8DB4F45D7D80ED058
:101E700000204F45D7D20029E2D00800D3E74342E3
:101E8000584140000138CEE702204042CBE7C4452C
:101E9000C5D80020C445C6D2EDE7C046FF07000004
:101EA000F0B54746CE460400180016001B031B0B76
:101EB0002C4D4A00994680B543000F03A446B04616
:101EC0003F0B520DC90F5B0DC00FAA420DD0AB42A4
:101ED00010D0002A27D13C43002B11D14D462E4370
:101EE0000ED10020002C15D00EE03D00254310D16E
:101EF000934218D14D462E430BD1002A02D13C43C8
:101F0000002C0BD0814214D0022001390840013846
:101F100000E00220C0BCB946B046F0BD0028F9D1AF
:101F200001204042F6E7002BECD14C462643E9D194
:101F3000EAE79A4204DD4342584140000138E9E7AC
:101F40009A42EBDB4F45DFD806D000204F45E1D267
:101F50000029E5D00800DDE7C445D5D80020C445F8
:101F6000D8D2F5E7FF070000F0B557464E46454684
:101F7000DE46E0B598460C034B000600924687B05B
:101F8000240B5B0DCF0F002B00D15CE1D94A9342AB
:101F900000D175E1420FE40014438022120414437F
:101FA000D54AC500944663440093002399469B4656
:101FB000434642461E03D20F5B0050469046360B06
:101FC0005B0D00D120E1CB4A934200D162E1CA49C6
:101FD000420F8C4600996344F6008C4616438022DB
:101FE0009C44120463461643C200002000930099EB
:101FF000434601318C4649467B4001930F2926D840
:10200000BE4B890059588F46434601933400150052
:1020100083465B46022B16D0032B00D103E2012B33
:1020200000D0CDE0002200240025019B12052243B0
:10203000DB071A432800110007B0F0BCBB46B246CC
:10204000A946A046F0BD00240025AA4AEDE7280CC9
:102050002D042D0C2B00110C1204120C5343984626
:1020600013002F00434399464F434F44BB46474616
:102070000B003F0CBA464343DA440293D14504D9DE
:1020800080277F02B9464B44029353461B0C9B4664
:1020900053461F0443461B041B0C98463B00434415
:1020A0000493330C3604360C984633004343994668
:1020B000434643432F009A46434677435D43380CDB
:1020C0004D444519A94503D980235B029946CA446A
:1020D0003F04280C3F0C2D04ED19270C2404240C7C
:1020E0000300200050437A4391463A00534405933D
:1020F000030C9A464A43614349445144AB448945E1
:1021000003D980235B0299464A4400040B0C000C5F
:102110000904091820009946434670435C437E43F6
:102120005F43030C9846A41944444A440397A642CB
:1021300004D980235B029846474403972304029EF8
:102140009A46059B5E449846AE42AD4176188E4253
:1021500089410004000C504440446D424719B84680
:10216000934649428946C344D94498428041A84590
:10217000AD4193459241894589416D424042284392
:10218000240C524249420A43039B00198018C71885
:102190004B46DC0D049B75021D436A1E95414B4660
:1021A000F60D7F0235435A023C431543FB0100D430
:1021B0001CE101216A080D401543E207154364083C
:1021C0004F496144002900DCB0E06B0709D00F22C1
:1021D0002A40042A05D02A1DAA42AD416D42641945
:1021E0001500E30104D58021464AC900144061442A
:1021F000454A914200DD26E76207ED086402490581
:102200001543240B4A0D10E75246324300D17FE0BC
:10221000002E00D1DCE0300000F030FD02000B3A6F
:102220001D2301009B1A52460839DA408E4016439E
:1022300052468A40009B3549181A03008C46634475
:1022400000200093D3E6250005434AD0002C00D19E
:10225000B0E0200000F012FD010002000B391D2348
:1022600010005B1A3100350008388440D9408540A1
:102270000C432648831A0093002399469B4697E611
:102280000500254326D1082200930223002491460D
:102290009B468DE65246009B324310D115490026DD
:1022A0008C46634449460093022319438946022021
:1022B0009DE65B460197022B00D0ADE6C3E60D4AD2
:1022C0000320944663444A46009303231A439146ED
:1022D00052468CE60C2200930323050091469B4650
:1022E00066E60423994600230093013300249B46AD
:1022F0005EE6C046FF07000001FCFFFF0001000092
:10230000FF030000FFFFFFFEFE0700000DFCFFFFC4
:1023100049460123194389460026012067E6002328
:1023200080240025434A019324037EE60120401ABD
:10233000382800DD76E61F285BDD1F22230052428D
:10234000511ACB401900202803D03B4A62449440E4
:1023500025436A1E95412A000A4307210D000024E7
:10236000154011425BD00F2100241140042953D0A5
:10237000111D914292415242A4180A0023024BD5EA
:1023800001220024002550E680231B031C4209D0B3
:102390001E4207D133431C0343461500240B254A34
:1023A000019342E68022120314432403214A240BA2
:1023B00001973AE600F062FC01000200153120327C
:1023C0001C2900DC4BE7340008380025844050E726
:1023D00000F054FC03001A00153220301C2A00DCE7
:1023E0001EE75646083B00229E4023E7009B9C4682
:1023F000E6E61249220061442E008D408A40C64024
:10240000691E8D4132432A43C4405307B6D00F2181
:1024100011400429ACD1B1E765076402240BD2084E
:102420001543002201E68022120314432403014ACB
:10243000240BFAE5FF0700003E0400001E04000024
:10244000F8B557464E464546DE46E0B51E00170035
:102450004A000B03520D5B0A9046420F1A43CD0F00
:10246000CD4C3103C300944670007A0F490AFF0037
:102470009A46B946400DF60F1143A04200D1B1E093
:1024800001225640B346B54200D188E04246121AB6
:10249000002A00DCAEE0002800D1C1E0BE48804543
:1024A00000D151E1802000040143382A00DD7BE1A6
:1024B0001F2A00DDEEE120203E00801A0C00D640ED
:1024C000D140874062468440521A781E8741944624
:1024D00034432743DC1BA3429B4162465B42D31A31
:1024E00099464B461B0200D418E14B465802430A5A
:1024F00099464B46002B00D137E1484600F0BEFB21
:10250000010008392023220048465B1ADA4088403F
:102510008C4043461043884500DD36E1C91A4B1C08
:102520001F2B00DDEAE020222600D21A0100944091
:10253000DE40D84000239140621E94418146984677
:1025400031430C43630709D00F232340042B05D0EC
:10255000231DA342A4416442A1441C004B461B021C
:1025600000D4DEE041468C4B0131994200D1E7E0D6
:102570004B468A48E4080340180049055B074002BF
:1025800023434A0D040B1205ED0722432A4318008A
:102590001100F0BCBB46B246A946A046F8BD424673
:1025A000121A002A52DD002800D19CE0A04500D17B
:1025B000CAE0802000040143382A00DD49E11F2AD7
:1025C00000DC97E110000E002038C640202A04D01D
:1025D0004020821A91400F43B9464C46621E9441F6
:1025E00034433AE10A003A4328D0B346B5422BD0EF
:1025F0006B4A4244002A5DD042464446821A002C6F
:1026000000D0F5E065461D4300D19CE1551E012A2E
:1026100000D1FBE1604CA24200D1BDE12A00F0E014
:102620000800384300D1C3E0501E012A00D1A8E1C0
:10263000594CA24200D187E0020036E70122564001
:10264000B346B54200D021E7554A4244002A00D1A2
:10265000B5E042464446821A002C00D138E14E4E85
:10266000B04200D1DEE18026644636043443A446FD
:10267000382A00DD96E11F2A00DD24E22026B41A64
:10268000A24664465646B440A1461C004E46D4407D
:10269000264334005646B3405E1EB3411C43634696
:1026A000D340C918E419BC42BF417F42B9468046B5
:1026B0008944D8E040463B4C0130204200D0B4E091
:1026C0004046002800D044E16046184300D190E124
:1026D0000800384300D0AAE16146DB0849070B43F4
:1026E0006146CC0827E00800384361D0501E012A1B
:1026F00000D139E1A24227D002005DE702001F3974
:10270000CA401100202B03D04022D31A9840044322
:10271000631E9C410023994698460C43630700D0F2
:1027200012E74B464A46E4085B072343D408424677
:1027300019498A420ED024035205240B520D22E778
:102740000A00002400231EE7DB08624652071343F9
:102750006246D4081A00224300D1FCE18022120311
:10276000144324030C4A240B0DE7200000F086FAE2
:10277000010018311F2900DCC4E6083884404346B4
:1027800020000024884500DCC8E6044A5B1A10409B
:1027900098468146D6E6C046FF070000FFFF7FFF50
:1027A00001F8FFFFFE0700000F437A1E974191E6F4
:1027B0006146DB0849070B436146CC08B8E7404651
:1027C000D34C0130204200D0A2E04046002800D087
:1027D00001E16046184300D15EE10800384300D0B3
:1027E0005FE16146DB0849070B436146CC08A2E77D
:1027F000C84DA84200D1CFE0802564462D042C436B
:10280000A446382A56DC1F2A00DDD1E020251E0010
:10281000AD1A6446AB40AC40D6405D1EAB4134437C
:1028200023436446D440091B49E06046DC1B461A3A
:10283000A34280414042814630004E46801B814683
:10284000000276D44B46234300D052E600240025F4
:1028500071E739430C00621E9441E4189C429B418D
:102860005B42634499464B461B0200D456E7012362
:102870009C46A84BE044984538D04B46A6480122D8
:1028800003401800630814401C43C3071C4343085B
:10289000994657E610000E002038C640202A04D082
:1028A0004020821A91400F43B9464F467A1E974105
:1028B00037430FE662461A4313005A1E9341FC1A2F
:1028C000A742BF417F42CB1B99465D46804608E642
:1028D00066461E4300D1BEE0561E012A00D109E122
:1028E0008C4CA24200D119E13200C1E642460024DC
:1028F000002348E620200C00801A3E0087408440D8
:10290000D640781E8741D14034433C438C44A4E7F1
:10291000804A904200D1E9E0DF199F429B41614427
:102920005B42C918CC077F084B08994680463C4358
:10293000F4E6FC1AA742BF4163467F42C91ACB1B8B
:1029400099465D46D5E5FF084B075D463B43CC08FD
:10295000EEE662461A4300D082E00B003B431BD1F7
:10296000802400252403F9E6DC199C429B41614444
:1029700089465B4299444B461B0244D40123984646
:10298000CCE6DC1B6246A3429B41511A5B42CB1A48
:10299000994601239846A4E5FF084B075D463B4353
:1029A000CC08D7E662461A431400631E9C4179E6C0
:1029B00015006446203DEC40A046202A05D0402565
:1029C0006446AA1A944023439A465446631E9C4187
:1029D0004346234373E762461A4323D00A003A432F
:1029E00000D0A0E06246DB08520713436246D408D9
:1029F000B0E60B003B4300D128E7FF084B075D46DC
:102A00003B43CC0897E60223984636E7FC1AA742D8
:102A1000BF4163467F42C91ACB1B994601235D46DD
:102A200098465EE54B07FF083B43CC0892E6DC1B6B
:102A30006046A342B641401A7642801B814600029E
:102A400060D5FC1AA742BF4163467F42C91ACB1B1F
:102A500099465D4676E5FF084B073B43CC0867E6A1
:102A60000A00DB083A4300D16FE66246520713437F
:102A70006246D40880221203144207D0C8081042CC
:102A800004D15D460400FB0849070B435A0FDB00E5
:102A9000DB08520713435DE64B07FF083B43CC08B6
:102AA00049E6DC199C429B41614489465B4299445A
:102AB0004B461B0200D431E64A46174B1A4001230D
:102AC000914698462AE616006446203EF440A04609
:102AD000202A05D040266446B21A944023439A46E1
:102AE0005446631E9C4143461C43DBE50200002420
:102AF000002348E5DC19BC42BF41614489467F425E
:102B0000B94438E74B46234300D19FE606E6C0466A
:102B1000FE070000FF070000FFFF7FFFFF084B07D5
:102B20003B43CC0816E66246DB0852071343624675
:102B3000D40880221203144207D0C808104204D1DE
:102B40005D460400FB0849070B435A0FDB005207A0
:102B5000DB081343FEE50023014A1C0013E5C046D1
:102B6000FF0700000A0030B5134C530009030500AD
:102B7000090B00205B0DD20FA34204DD0F488342F6
:102B800002DD0F4BD01830BD8020400301430D48BB
:102B9000C01A1F2808DD0C48C31AD9400B00584240
:102BA000002AF0D11800EEE7084CC540A446634463
:102BB00099400B002B43F2E7FE0300001D040000C8
:102BC000FFFFFF7F3304000013040000EDFBFFFF55
:102BD00070B5002816D0C317C5185D40C40F280073
:102BE00000F04CF8114A121A0A2816DC03002E00D5
:102BF00015339E400B23181AC54052052D032D0B8B
:102C0000530D03E000240023002500261B052B4361
:102C1000E40723433000190070BD0B38854052058E
:102C20002D0300262D0B530DF0E7C0461E040000B7
:102C300010B5041E10D000F021F80F4B1B1A0A2803
:102C400011DC0B222100121AD14015300A035B055A
:102C50008440120B5B0D01E0002300221B0513438F
:102C60002000190010BD22000B3882405B051203C2
:102C70000024120B5B0DF1E71E0400001C21012350
:102C80001B04984201D3000C10391B0A984201D34F
:102C9000000A08391B09984201D30009043902A22D
:102CA000105C40187047C046040302020101010194
:102CB000000000000000000010B5002903D1FFF75C
:102CC000DDFF203002E00800FFF7D8FF10BDC0464E
:102CD00010B588B03249002000F0D8FA314B1B788B
:102CE000012B07D0022B37D0032B01D02E4B02E053
:102CF0002E4B00E02E4B2F4A1278012A2ED02A4A62
:102D000000922D4A162102A805F0E2FB02A902203A
:102D100000F0BCFA294B1B78022B21D0012B39D0B3
:102D20002749042000F0B2FA264B18682649FDF71F
:102D3000A5FF0C00254B18682349FDF79FFF009164
:102D40002300234A162102A805F0C2FB02A906208F
:102D500000F09CFA08B010BD1E4BCCE71E4ACFE72E
:102D6000104B1B78032B08D01C4B1B78002B0FD16A
:102D70001B49042000F08AFAD6E7184B1B78002B79
:102D800004D11749042000F081FACDE71549F9E78D
:102D90001549EEE71549042000F078FAC4E7C0466B
:102DA0009C0100005D01002048010000540100006A
:102DB0004C0100005A010020B00100005401002025
:102DC000D8010000040100201027000000010020AD
:102DD000EC010000400100005C01000055010020F2
:102DE000740100006001000088010000C4010000BF
:102DF000F0B5C64600B584B00023CC4A0121CC48CA
:102E000000F03EFD0021002000F036FF00285BD1DD
:102E1000C849082000F0B8FFC74AC849012003F09C
:102E20005BF800F0F1FBC64D01220721280000F0FD
:102E3000B9FFC44C01220721200000F0B7FF802118
:102E4000200000F0BCFF01220621280000F0AAFFAC
:102E500001220621200000F0A9FF4021200000F0FF
:102E6000AEFFB94805F020FBB84805F01DFBB84897
:102E700005F01AFBB74805F017FBB74805F014FB3F
:102E8000B64AB749002001F0FDFB040080235B0037
:102E9000B44A0021002001F0D5FD0443A4B2B24B96
:102EA000B24A0121002001F083FD0443A4B2B04ADC
:102EB0000021002001F00AFE0443A1B2002906D03F
:102EC000AC4805F0F1FAFEE704F04EF9A0E700F097
:102ED0003DFA002807D0012103A800F073F9A64DA0
:102EE000A64C2E00AFE000F043FAFFF7F1FEA34B33
:102EF00000221A70EFE7A04B02221A70A04805F0DA
:102F0000D3FAB8E09C4B03221A709E4805F0CCFA25
:102F1000B1E0974B1B7A03271F405A07D20F904608
:102F20001B09954A1278BA4204D1974A1278424551
:102F300000D1B5E042463900944805F0B5FA8E4B11
:102F40001F70914B42461A708C4B01221A70A7E0F9
:102F50008F4B02221A708F4B00221A704021794841
:102F600000F02DFF8C4B1B8805339BB2FA225200D8
:102F700093420DD2884A1380884B1B78002B13D0C4
:102F80008021704800F01DFF854B01221A70ABE0D4
:102F9000814B00221A80814A137801214B40137023
:102FA0000122764B1A70E7E78021664800F007FFA0
:102FB0007B4B00221A7097E0754A1370754A1370A4
:102FC0004021604800F0FDFE8EE06C4B1B78002B2A
:102FD00000D099E0734B1B8805339BB2632B00D85C
:102FE00098E0704B00221A800121002001F018FFA8
:102FF000022825D0664B1A780020022A00D18CE0E6
:103000006949644B1F78BF0004233B40D200182756
:103010003A40134303430B70644802780F231F00A8
:1030200017404F7001321340037000914E4B4F4ACE
:103030000121002001F0E2FC5D4A136801331360B6
:10304000052004F0A7F800215A4800F0BCFE431EFA
:103050009841C1B203A800F0BCF800280DD02B782D
:10306000002B00D147E7022B00D14BE70023337040
:10307000514805F019FA012323700021002001F0C6
:10308000CFFE022811D000280AD14C4A1368013320
:10309000136080235B00364A52689A4200D138E7B9
:1030A000334A0021002001F011FD334B1B78023B15
:1030B000012B00D84CE7384B00221A80374B1A708E
:1030C000374B1A7080211F4800F079FE2E4B1B7879
:1030D000012B00D170E700232D4A13702D4A137085
:1030E0004021184800F06BFE354A138805339BB227
:1030F0001380FA229200934200D266E7304B0022FE
:103100001A801E4B01321A70FFF7E2FD1B4B0022A2
:103110001A705FE7234A138092E7214B1B78013036
:10312000002B00D06CE710006AE7C0466C0100205D
:10313000E8000020FC0500008802002034070000A1
:1031400000C0044000F30040000200003002000014
:103150005C02000088020000B8020000FC060000CB
:1031600070010020B803000002020000C403000048
:1031700008010020E40200005D010020C0000020E2
:1031800004030000300300005A0100208003000007
:10319000540100205B010020560100205501002051
:1031A0005E01002060010020640100205C0100201D
:1031B0000401002000F4004058030000000100203A
:1031C00058010020002803D001704170042383704F
:1031D000704710B5031E1CD042788A4204D041705B
:1031E00001228270002010BD8278032A05D80132A6
:1031F000D2B282700020032AF5D91A788A420AD006
:103200000024002A01D001344C40012020401970D4
:10321000E9E70020E7E70020E5E700B585B0020018
:10322000022103A800F0BFF802000120002A01D10A
:1032300005B000BD64230093633B03A902F0FEFFC9
:10324000F6E710B5B0231843FFF7E7FF002800D0DA
:1032500010BDFFF7E2FF0028FAD11030FFF7DDFFC5
:10326000F6E700B5A5B002000B00812103A800F02D
:10327000A6F802000120002A01D125B000BD642378
:103280000093633B03A902F0D9FFF6E7F0B5D646F9
:103290004F464646C0B5A4B081460C0000230493B7
:1032A0007C22002105A805F027F9002C3AD02378CC
:1032B000002B37D0621C904602AA571E0521002021
:1032C0000026019702AAD41D19E002AB1E705E70A1
:1032D0009E70DE701E7103000133FA5CE2548B4273
:1032E000FAD1063003191E7043461B78002B19D003
:1032F00001229446E044063F06317E2812D01A008F
:10330000203A5E2AE1D89A00D218A13A0E4B9C4688
:10331000944401236246D55C019AD5540133062BAF
:10332000F8D1D8E74846FFF78CFF03000120002BB7
:1033300005D024B0E0BCBA46B146A846F0BD802115
:1033400004A8FFF78EFFF4E7D003000070B56420F7
:1033500003F020FF054C250019352078FFF75DFFAD
:10336000002802D10134AC42F7D170BDAC05000099
:1033700010B5A0B0002300937C22002101A805F025
:10338000BBF800242000FFF75CFF002809D1802152
:103390006846FFF766FF002803D10134E4B2082C29
:1033A000F0D120B010BD031E07D00020012903D9A1
:1033B000002119705A70023070470020FCE730B5C8
:1033C000041E10D0002A10D0181E0BD0581C8842A2
:1033D0000DD8402121700021013A0131555C65541E
:1033E0009942FAD130BD0020FCE70020FAE7002026
:1033F000F8E70000F0B5CE46474680B583B03A4BBB
:103400001B6801271F40B946002300930233009335
:10341000009B002B39D0354D002603239C466B467C
:10342000DC1D2BE04B46002B23D04A6808688968D6
:10343000891A63460B4023702378C91A8B08984673
:1034400006D09F000023D158C15004339F42FAD1C7
:1034500043469B0098462378002B0AD00023424421
:1034600011004044CA5CC25401332278D2B29A425D
:10347000F8D80136009B1035B34206D929002B7BC2
:10348000022BCFD0002BF4D0CFE701230093009B79
:10349000002B23D0164A174B9B1A0321194068466C
:1034A000C171C1795B1A9B0805D099008918002069
:1034B00001C29142FCD19B006A4607321278002A71
:1034C0000BD000220A495B1800246946C81D9C5491
:1034D00001320178C9B29142F9D8009B03B0C0BC57
:1034E000B946B046F0BDC04600F00740DC0600001B
:1034F00000010020440300207047000030B50A4B53
:103500000A4A9B1A99080A480A4A1060032B09D9EB
:103510000023002204000548C558E5500132043359
:103520009142F9D830BDC046C00000000000000044
:103530000000002008ED00E010B503F015FEFEE7E6
:1035400010B503F011FEFEE710B503F00DFEFEE727
:1035500010B503F009FEFEE710B503F005FEFEE727
:1035600010B503F001FEFEE710B503F0FDFDFEE728
:1035700010B503F0F9FDFEE710B503F0F5FDFEE729
:1035800010B503F0F1FDFEE710B503F0EDFDFEE729
:1035900010B503F0E9FDFEE710B503F0E5FDFEE729
:1035A00010B503F0E1FDFEE710B503F0DDFDFEE729
:1035B00010B503F0D9FDFEE710B503F0D5FDFEE729
:1035C00010B503F0D1FDFEE710B503F0CDFDFEE729
:1035D00010B503F0C9FDFEE710B503F0C5FDFEE729
:1035E00010B503F0C1FDFEE710B503F0BDFDFEE729
:1035F00010B503F0B9FDFEE710B503F0B5FDFEE729
:1036000010B503F0B1FDFEE710B5034A03490120F0
:1036100003F0FAFA10BDC0464C070000CC020020AF
:1036200000B583B06B46D91D08700122012003F05C
:10363000FBF903B000BD000010B50B490B68032275
:1036400093431A000323034013430B60074A0C0003
:103650000321A3680B40984204D0013A002AF8D114
:10366000034800E0002010BD00400640FFFF0300BB
:10367000010A0000F0B5D6464F464646C0B51D4B80
:103680009A6991469A691C491140802252000A4366
:103690009A611A4C0121012618000827164B9846FA
:1036A000E023DB009C4600E01E008B19D9B25BB220
:1036B0008268174215D1013C002C10D08269454622
:1036C0001540AA460A0265462A4055462A438261A9
:1036D000012BE9D0072BE8D101267642E5E708481F
:1036E00000E00020034B4A469A61E0BCBA46B1466E
:1036F000A846F0BD00400640FFF8FFFFFFFF0300B3
:10370000060A00004000074BC35A9B00064A944635
:1037100063441A6802210A431A601A688A431A60CD
:103720007047C046700700000050064070B50400A6
:103730000D00222835D84400494BE35A9B00494AE2
:10374000944663441A68D20708D51A685205520F86
:10375000052A23D8920044498A58974600230B60D3
:10376000802040000AE0414A2A6019680903090FD5
:1037700001312868FDF7FCF92860002070BD3C4A43
:103780002A60F2E73B4A12682A60EEE73A4A12687A
:103790002A60EAE7FA2292002A60E6E700222A601D
:1037A000E3E728281ED8262813D007D824280CD0D1
:1037B000252813D12D4B0B600020DFE727280DD1E2
:1037C0002D4B1B680B600020D8E7294B0B600020B5
:1037D000D4E7284B1B680B600020CFE700232B6049
:1037E0000020CBE700202C2CC8D8244B9A68032358
:1037F0001340022B2AD0032B2CD0002B02D0002305
:103800000B6001E0194B0B601C4BD9680903090FD1
:1038100001312868FDF7ACF928602A2C1DD0174B20
:10382000D9680905090F0131FDF7A2F903002860E5
:1038300000202C2CA2D1114AD2680F211140013155
:103840001800FDF795F92860002097E7094B1B68E1
:103850000B60D9E7064B0B60D6E700208EE7C04629
:10386000700700000050064058070000006CDC02A2
:1038700080841E0010030020140300200040064036
:1038800010B5044C20602171A26023736373002083
:1038900010BDC0460003002010B5FFF747FF10BD64
:1038A000F0B5CE46474680B583B000282DD043689A
:1038B000002B2AD00368002B27D00024DC4B9C4629
:1038C0000127E023DB009946F0252D03A100436882
:1038D0005B5C5B0062469A5A9200D64B9846424423
:1038E0001368BB4313604368984641448B781B02BE
:1038F0004E463340CE7836042E40334349780B434E
:103900001360013403689C42E0D385680024002DD5
:1039100000D1DCE0C668C84B00221A645A6C5A64B5
:103920000320FFF789FE041E00D0BAE0C24B5B699A
:10393000022293432A78511E8A4152001343BE4A01
:1039400053615369042293436A78511E8A4192005D
:103950001343B94A5361136901218B431900AB78B2
:103960000B431361136902229343EA78511E8A4183
:1039700052001343B04A1361002E0AD0AF4B10001F
:1039800004218268114200D03FE1013B002BF8D1B5
:1039900011E0A94BF02212019A6490221201DA641C
:1039A0001A6CA7491140802252000A431A641A6C0B
:1039B00001210A431A642B7D002B00D18DE09E4A21
:1039C000D3699F4919406B7D1B0280204000034052
:1039D0000B43D361D36908218B431900AB7DFF38BA
:1039E0004340DB000B43D361D36902229343EA7D5A
:1039F000511E8A41520013438F4AD361D369042276
:103A000093432A7E511E8A41920013438A4AD3610E
:103A1000D36901218B4319002B7D0B43D361894B63
:103A2000EA691A602B7A002B00D185E0824A9369FB
:103A300085491940AB7A1B02E020C00003400B43CC
:103A40009361936908218B4319006B7A01204340ED
:103A5000DB000B439361936901218B4319002B7A9F
:103A60000B439361FFF706FE041E3FD1774BEA68D4
:103A70001A600127002E43D032896F4B1A65728974
:103A80005A65186CF2795202714901400A431A646E
:103A9000186CB27952000221884302431A64012F44
:103AA00052D06C492A20FFF7F7FE01A92C20FFF71E
:103AB000F3FE694E356869490198FDF759F800042D
:103AC000FC239B031840664B1D40284330602000B8
:103AD00003B0C0BCB946B046F0BD574AD369012116
:103AE0008B43D361574B00221A609BE7524A93697C
:103AF00001218B439361554B00221A600027B9E7DF
:103B0000524B18685549FDF733F882001218120518
:103B1000120C49490A6543001B181B051B0C4B6519
:103B20000B6C4B4A1A4080239B0013430B640B6CB5
:103B3000022213430B64B2E73F4A936901218B438E
:103B40009361424B00221A603B494B68454818403C
:103B50002023EB5C1B04F0221203134003434B6051
:103B60004B68414818402123EB5C1B02F0221201F4
:103B7000134003434B604B680F2293431A002223E8
:103B8000E85C133B034013434B603349086823232D
:103B9000EB5C1B02C02292001340344A02401343E4
:103BA0000B600A6880231B0613430B60234B224AD9
:103BB000D068516888420AD0013B002BF8D12C4CC8
:103BC0006FE71D4AD36A07218B43D36269E72879DF
:103BD000FFF732FD041E00D063E72423EB5C002BCB
:103BE000EFD0154AD36A07218B4319002623E85CDE
:103BF0001F3B03400B43D362D36A1E491940252360
:103C0000EB5C1B020B43D3624BE772880A4B9A644E
:103C1000B288DA64196C72781202094801400A43CA
:103C20001A641A6C01218A4331780A431A64C2E685
:103C3000700700000050064000400640FFFF0300F0
:103C4000FFFEFFFF14030020FFF8FFFF100300201A
:103C5000FFFDFFFFF80000200000024040420F007F
:103C6000FFFFC0FFFFFFF0FFFFF0FFFFFFFCFFFFC4
:103C7000020A0000FF00FFFFF0B5CE46474680B5C0
:103C800083B080460D0001AC2070617000F07EF9B9
:103C90003C4A137B53730122A270002B5AD000249C
:103CA000384E370004E00134E4B23B7BA34251D9E3
:103CB000A300B2689B58002BF5D01A79022AF2D0E3
:103CC00099681B6801A898470028ECD02D4B5C73BD
:103CD000002DE8D10423FF33994647E001AB0222CF
:103CE0009A70284B1B7B002B1DD00024254F3E00D3
:103CF00004E00134E4B2337BA34214D9A300BA68D0
:103D00009B58002BF5D01A79012AF2D099681B68CC
:103D100001A898470028ECD01A4B5C73002DE8D11D
:103D200082235B00994600F023F9484603B0C0BCEB
:103D3000B946B046F0BD0134E4B22B7BA342F2D9C0
:103D4000A300BA689B58002BF5D099681B6801A89E
:103D50009847F0E70B4C43469B0022689858FFF7C2
:103D60009FFD8146434663710028B7D001AB002216
:103D70009A70044B1B7B002BD5D00024014F3D00D3
:103D8000DEE7C0460003002070B5061E08D00C0018
:103D90000025200000F01CF801351C34AE42F8D19B
:103DA000002070BD10B500F0B9F810BD10B5436922
:103DB00001248C40A3438A401A43426110BD4160F4
:103DC0007047816070470369CB40012018407047FD
:103DD00030B543689C0003689C4664442168037ABC
:103DE000012B50D0022B53D0002B49D004229143F9
:103DF000437A9B001A40114310229143827A531E4A
:103E00009A4113010B4340229343C17A89010A402E
:103E100013433F4A1340027B1202E021C9000A40CB
:103E200013432360C37B002B35D143689B00426959
:103E30009446634480215A58364C22405A50037BA2
:103E4000012B45D043689B0042699446634480221D
:103E500099580F24A14399504368990043699C469F
:103E600061448C58457B0F232B4023438B50837B2D
:103E7000002B04D04269416801238B40D36130BDDF
:103E800002339943B2E70123994301331943ADE764
:103E900003231943AAE74368990043699C46614498
:103EA00080228B581C4C23408B508C58037C1B0663
:103EB000F8256D052B4023438B5043689B004169D7
:103EC0008C4663449C588021490221439950B6E7AF
:103ED00041694B69027E002A04D0012A07D0426959
:103EE0005361AFE7012241688A409343F7E7446892
:103EF0000122A2401343427E002A03D10132A24094
:103F00008A60ECE7012AEAD1A2404A60E7E7C046AE
:103F1000FFF8FFFFFFFFFEFFFFFFFFE089004018F3
:103F2000036804490B401202E021C9000A401A4309
:103F300002607047FFF8FFFF10B5064B9C68002A2F
:103F400004D0030010339B001B5913601030800015
:103F5000015110BD00ED00E0002805DB1F231840D3
:103F60001E3B8340014A13607047C04600E100E0F9
:103F7000054B1B68002B04DD013B034A1360002B3B
:103F800000DD704762B6FCE71803002072B6024AF3
:103F9000136801331360704718030020830004483E
:103FA0000068C0180368596003689A600020704771
:103FB0001C03002010B50E4B1B688200D4580D4B1B
:103FC0005A6803231840C240D30700D410BD012310
:103FD0008340084A536253605368002CF6D06368EC
:103FE000002BF3D0217BC9B2A0689847EEE7C0460A
:103FF0001C0300200080004070B50400032505402C
:10400000002229000C4800F035F90C4B1B68A40075
:10401000E358002B0FD001221A735A68002A03D0EC
:10402000197BC9B2986890470123AB40024A53629A
:1040300053605168D36070BD008000401C030020B5
:10404000F0B5D646474680B587B003900E0004927F
:1040500005930EAB1F780125BD40FF2129400F9825
:10406000FCF70CFE0120002904D007B0C0BCBA4602
:10407000B046F0BD0324039B1C40404B9A460022EF
:104080002100180000F0F6F82100504600F01AF95F
:1040900063013B4A99180A88302082431038024352
:1040A0000A805246126837490A408021C9000A43F3
:1040B00050460260D0469844424604985050324AD6
:1040C00094466344059A1A600197009700230022E2
:1040D0002100504600F02EF9022E44D00DD8002EBB
:1040E00017D06DB2ADB2294B4246D5526301284A72
:1040F0009446634400221A8016E0032E14D1002255
:10410000224B4146CA52630121498C4663441A80BE
:104110000AE01E4B00224146CA526DB2ADB26301A5
:104120001B4A944663441D80144D0F9A21002800B9
:1041300000F018F901222100280000F043F9640181
:104140000F4B9C46644423885B045B0C8022120264
:10415000134323800F4B1B68039A9600F3580022E9
:104160001A73002081E76DB2ADB2084B4246D552BA
:104170006301074A944663441D80D5E700800040F0
:104180001C840040FFFBFFFF10840040040400007B
:10419000148400401C03002070B582B0050006A8FE
:1041A000007809AC2678079C019400902800FFF75E
:1041B00047FF041E02D0200002B070BD032005405E
:1041C000089A2900084800F0FDF86B01074A944658
:1041D00063441B8808229343721E9641F6001E43D7
:1041E0006D0165442E80E6E7008000401C8400409D
:1041F00010B5032101400122024800F03BF80020E5
:1042000010BDC0460080004010B5032101400022CF
:10421000024800F02FF8002010BDC046008000408A
:10422000024B9C4660440170002070474080004073
:10423000032303405B01024A9446634419607047BC
:104240000C840040032318404301074A944663440A
:104250001B88082293434A1E9141C900194340011B
:10426000604401807047C0461C840040004870478D
:1042700000800040F8B505000F001600FFF786FE2D
:104280002A6880239B0213432B6032232C68002C66
:1042900002DA013B002BF9D1002E0BD0AA690123D1
:1042A000BB401343AB612B68054A13402B60FFF7FB
:1042B0005FFEF8BDAB690122BA409343AB61F2E700
:1042C000FFFFFDFF490140188123DB00C2180023D6
:1042D0001360104A8021C90042500F4943520F49D0
:1042E00043520F4941180B608221C90041180A60EE
:1042F0000C4A821813800C4A821813808322D20041
:1043000082181360094A82181380094A944660444F
:10431000038070475A5A5A5A0404000006040000E9
:104320000C04000014040000160400001C0400002B
:104330001E04000070B504AC247805AD2E78DB00B7
:10434000FF251D40072333402B43D2021343240291
:10435000E022D200144023439BB22031490141188E
:10436000CB8070BD10B503685B0523D54B01C31826
:104370008124E400A44663441B68002B0CDB4B0142
:10438000C31863441B685B0006D49200920849017D
:10439000411861440A6014E0490141188123DB009F
:1043A0009C4661440B689B0A9B029205920D1A433E
:1043B0000A6006E0490141188123DB009C46614404
:1043C0000A6010BD10B54B01C318174CA4466344D6
:1043D0001B881BB2002B13DB49014118124BC81874
:1043E00003885204520CDB0BDB03134303800F4B97
:1043F0009C4661440B88DB0BDB031A430A8010BD2B
:104400004901411808190388D205D20D5B0A5B02E5
:1044100013430380054B9C4661440B885B0A5B0297
:104420001A430A80EBE7C0461E0400001604000091
:1044300010B50020FFF7BEFD10BD10B50120FFF73D
:10444000B9FD10BD10B50220FFF7B4FD10BD10B5C9
:104450000320FFF7AFFD10BD70B50020FFF706FF8A
:10446000C5680024012604E06D080134E4B2042C80
:1044700005D02E42F8D02000FFF7BEFDF4E770BD56
:10448000F0B5CE4600B588B00C00150003930EAB16
:1044900080CB1B78994680001F4BC6581F4800F000
:1044A000EDFC844230D2E300F6187379002B31D151
:1044B0001F2C05D81F22224001339340174A136353
:1044C000022373714B46B371EB7AF37104AA6968E6
:1044D000069129781171297A1173697A5173A97A31
:1044E00091735A1E93411B010C33049300230193D3
:1044F0000097039B04AA2100084800F0B5FE00289D
:1045000004D00023737101E0C020800008B080BC9B
:10451000B946F0BD0220F9E7200300200040024028
:10452000F0B583B00C00160001938000174BC558FE
:10453000174800F0A3FC844220D2154B1B689B0057
:1045400007D5134B5B6B1B011B0F5B0007339C42B2
:1045500018D9E700EF197B790220002B10D1013325
:104560007B713E60019BBB7101222100084800F075
:1045700021FD002804D000237B7101E0C0208000D1
:1045800003B0F0BDC0208000FAE7C0462003002041
:104590000040024070B5050082002B4BD458122316
:1045A000FF33E35C002B20D06379032B2ED1002353
:1045B00023606379032B0BD0002363710133FF3336
:1045C000E658002E04D01223FF33E35C012B34D0D5
:1045D000A379002B08D06379002B02D06379032BD9
:1045E00002D1201D02F04AFE70BD184E00220521A6
:1045F000300000F0DFFC00220621300000F0DAFC81
:1046000000220721300000F0D5FCD0E7266888237F
:104610005B00E05CFFF7F8FD33689A0202D4726831
:10462000920C72601B031B0F4822B354B3681BBA71
:10463000B360F3681BBAF360B9E7230000220821D6
:104640002800B047C4E7C0462003002000400240D5
:1046500070B50C008000094BC6580022084800F0D5
:10466000A9FCE4003519AB79002B02D100236B7152
:1046700070BD201D301802F001FEF7E72003002076
:1046800000400240F0B5DE4657464E464546E0B58E
:1046900083B0019089461600B84B1B68002B38DAAE
:1046A000B64C6268737A5B03802189010B40B44980
:1046B0000A4013436360200000F0EAFB200000F092
:1046C000A5FC200000F0FAFB2368AE4A1340327AC2
:1046D000002A00D047E1A94A1360136D5B005B0814
:1046E00000221343A54A1365C02109015358A64867
:1046F000034053501368327A1B05DB0F9A4210D0E7
:104700000124200003B0F0BCBB46B246A946A04637
:10471000F0BD9A4C200000F079FC200000F0C0FBB6
:10472000BEE7964B5B6B99490B40511E8A411203C1
:104730001A43924B5A63B379022B07D08F490B6807
:10474000934A1A4080239B0213430B607379002B1A
:1047500005D03179894800F0EBFB0028D0D1342313
:10476000F35C012B76D0854A13688A490B401360AD
:10477000F179824C200000F03BFD3168200000F010
:104780004BFF041EBDD17D4B1B681B0570D5F76820
:10479000356973699C46B069F169784B9B461B6D1E
:1047A000DB0FDB075A461365136D9846BB061B0CDF
:1047B0001F2762461740424617433B436D01F827C7
:1047C000BF003D402B434005734D2840034309047F
:1047D000F820400301400B435A461365336A726A5E
:1047E0009446B26A9246F56A316B6C485A4617583D
:1047F0006B4A17405A461750125890469B02F827AA
:10480000FF013B40072752461740424617433B43B0
:1048100062465201FF2717403B432D05614F3D4043
:104820002B430904E025ED0229400B435A4613505F
:10483000B179524800F090FCB379032B3FD18A2321
:104840005B004A463168D1503368002B63D0CA46BA
:1048500000274CE0494B1B689B0000D450E74749B8
:104860000B684C4A1A4080231B0213430B607FE7FE
:10487000F368984630697569B769F3699A463F49A4
:104880004B68494A13404B604B689C46072342469D
:1048900013403F063B43624613432D04E027FF02CB
:1048A0003D402B43C004E025AD032840034352465E
:1048B0009205C0200004024013434B60B8E72F4824
:1048C00000F092FBBBE7002F20D04B461D1D0024BB
:1048D000280002F0F0FC01340835BC42F8D1012474
:1048E000013708239C46E2443368BB4210D9534643
:1048F000181D002102F0D5FC0028E4D10022534607
:104900009A711A60FB004B445A71E9E70124E7E70A
:10491000002C00D0F5E63423F25C1223FF33494625
:10492000CA54DC3BF25CDB33CA54002380225200C1
:104930008B5004328B5004328B5004328B50019BCD
:104940009A001A4BD1500A20FFF706FB0A20FFF706
:1049500003FB0A20FFF700FB0B20FFF7FDFA1120F5
:10496000FFF7FAFACDE6802212011343034A1360DF
:10497000136D5B005B0880221206B2E60040024025
:10498000FFDFFFFFFFF7FFFFFF60FFFFFFEFFFFF0E
:10499000FFFFFDFFFF7FFFFF0000E07F040C000032
:1049A000188308C00000F03FF8FF0000200300203B
:1049B00070B586B00D0014001E000F4800F004FC16
:1049C000002803D0C020800006B070BD02AA636832
:1049D000936023781371A37A9373237A1373637AA2
:1049E000537308230293002301930093330029009B
:1049F000014800F039FCE7E700400240F0B583B021
:104A000005000C0016001F000D4800F0DDFB00281B
:104A100003D0C020800003B0F0BD00230193089BA9
:104A200000933B00320021002800FFF729FD0028F9
:104A3000F1D101222100024800F0BCFAEBE7C046A8
:104A40000040024070B584B00C0015001E001E48E6
:104A500000F0BAFB002833D16B6802932B786A46CA
:104A600013712B7A13731F23234001259D401F2CA4
:104A700001D8154B1D630F23009333006A462100B4
:104A8000114800F0FBFC002801D004B070BD0023E9
:104A9000009333006A4621000B4800F0EFFC002829
:104AA000F3D10423009333006A462100064800F046
:104AB000E5FC0028E9D11F2CE7D8034B1D63E4E790
:104AC000C0208000E1E7C0460040024070B505000C
:104AD0000C001600074800F077FB002802D0C02029
:104AE000800070BD0023320021002800FFF718FD70
:104AF000F7E7C04600400240F0B5CE46474680B5D5
:104B000095B080460C00914200D9FAE07F491F25FC
:104B1000012703E00134944200D9F2E01F2CF9D8B8
:104B2000886A0B6B2E0026400340F3401F42F1D0F1
:104B300043469B00764A9D58744B1B689B0001D5E9
:104B4000072C1ED9E700EF197B79012B7CD07B79EC
:104B5000022B21D06D4A916A136B0B40F340DB07A7
:104B600000D4CEE013689B0000D4C1E0072C00D92C
:104B7000BEE06B79002B00D0C3E00133B340136378
:104B8000BFE0052C27D0062C42D0072C4ED0E300E6
:104B9000EB185B79022BDDD1E700EF19FB79002BD5
:104BA00000D08DE00123B340584A136300237B718A
:104BB0000133FF33EB589946002B04D02B00220021
:104BC00004214046C8477B79002BC3D121004046D1
:104BD000FFF73EFDBEE76B79012BD8D14B4F29681B
:104BE000380000F06DFA20233B6300236B71013322
:104BF000FF33EF58002F04D02B0000220121404644
:104C0000B8476B79002BC2D14046FFF7C3FCBEE723
:104C10003E4B40221A6380235B00EF58002FB6D032
:104C20002B00002202214046B847B0E7374B8022D4
:104C30001A6380235B00EF58002FA8D02B000022BE
:104C400003214046B847A2E7304B9946210018009F
:104C500000F06AFC3A682100484600F06AFC012333
:104C6000B3404A46136313689B0003D53B68DB7867
:104C70001B0717D0254B9B6800237B710133FF3343
:104C8000EB589946002B04D02B002200002140460F
:104C9000C8477B79002B00D059E721004046FFF739
:104CA000D7FC54E72100484600F0C0FA0368194ACF
:104CB0001340036002688023DB0413430360DBE7D7
:104CC000124B99462100180000F02EFC01AA210089
:104CD000484600F02EFC4B469B68019B1B011B0FB6
:104CE000042B00D062E7033BB3404A4613635DE701
:104CF000E4002C196379002B03D10133B340034A3C
:104D0000136315B0C0BCB946B046F0BD00400240C8
:104D100020030020FFFFFFF070B505008200324B3A
:104D2000D45884235B00E358002B58D02F4A126AD2
:104D3000920203D580212200890398472B4B1B6ADE
:104D4000DB0207D5802184235B00E358220049035E
:104D500028009847254B1B6A1B0307D58021842315
:104D60005B00E35822000903280098471F4B1B6A89
:104D70009B0507D5802184235B00E358220089002E
:104D800028009847194B1B6ADB0507D5802184232F
:104D90005B00E3582200490028009847134B1B6A28
:104DA0005B0706D584235B00E3582200042128001A
:104DB00098470E4B1B6A9B0706D584235B00E3587C
:104DC0002200022128009847084B1B6ADB0706D502
:104DD00084235B00E3582200012128009847034800
:104DE00000F066F970BDC04620030020004002407C
:104DF00010B5094B1B6ADB070DD58300074A9B588A
:104E0000054A01211162802252009C58002C02D0D8
:104E100000220631A04710BD0040024020030020C0
:104E20008000074BC358C9005B185A79D3B20020E1
:104E3000002A03D0D81E431E984101307047C04657
:104E400020030020082808D90938C3B2062B11D83E
:104E50009800094B1B589F460C2070471020FCE718
:104E60001420FAE71820F8E72020F6E73020F4E7CE
:104E70004020F2E70020F0E7CC070000034B9C46FF
:104E800060444342584140017047C04600C0FDBFE6
:104E90000368DB0203D503685B005B0803607047AF
:104EA0000368002B09DB026880231B0613430360A1
:104EB0008022520303681342FCD0704710B5026889
:104EC00080239B041343036080218904026813003C
:104ED0000B400A42FAD10168802252010A43026063
:104EE0000122524202614261826182640C4A904214
:104EF0000FD10C4A00240C4910C28A42FCD1012176
:104F00004942882292009A18920011500133202BB6
:104F1000F7D100238362013B0363044B036210BD9E
:104F200000400240804002408042024006003B00B8
:104F300070B502001C4BC41863425C4164010668F2
:104F400080252D0133002B4001202E4229D11568E8
:104F50008020800528431060556B0806F026360532
:104F60003040124E35402843506301204042906447
:104F7000002C17D00131C8000D4E01256D4207E00D
:104F800088218900591889008E500133A34207D027
:104F90009842F5D988218900591889008D50F4E785
:104FA000002070BD0020FCE700C0FDBFFFFFFFF048
:104FB000FFFFFF1F70B505000C001600FEF7E6FFAF
:104FC0001F2C08D81F210C400123A340002E06D01F
:104FD000AA6A1343AB62FEF7CBFF002070BDAA6A3A
:104FE0009A43AA62F7E700000368064A1340036089
:104FF0000368054A13400360802252040368134289
:10500000FCD17047FFFFFFEFFFFFFFBF30B5026825
:105010008023DB0513430360026880235B05134391
:10502000036003680125002B11DB00238360036804
:105030001B0512D50368DB011AD4802149041B4CDF
:10504000826803680B4213D1A242F9D910E00368C9
:105050005B005B0803600025E7E70368DB0107D41A
:1050600080214904826803680B4201D1B32AF9D92F
:105070000368DB010DD4846A0168026880239B0405
:10508000134303608022920403681342FCD18462BC
:105090000160002D09D1026880231B0613430360C1
:1050A0008022520303681342FCD030BDD9020000B5
:1050B000026A024B1A4200D00362704706003B00AE
:1050C000F0B583B007000C00050088350E000836E7
:1050D0008023C3581B03180FFFF7B4FE031C0828D6
:1050E00000D90823D8B24822A3548023FB58236058
:1050F0009B0214D58423FB58636003231A003240BB
:105100001E4210D1002808D093089B00E9180968B6
:1051100009BAF15004328242F6D303B0F0BD8423C1
:10512000FB589B0CE8E7061EF7D0E11D00246B46F8
:10513000D81C03E004340431B442EED2A3089B002F
:10514000EB181B681BBA01930123C25CCA540133DC
:10515000052BFAD1EEE7000010B5042905D8890027
:10516000154B5B589F46FFF751FF10BD0268802327
:105170001B0613430360F8E70368104A13400360FB
:10518000436808229343436043680D4A13404360D9
:10519000EBE74368082213434360E6E74268802355
:1051A0005B011343436043680822934343600368F1
:1051B000044A13400360D8E7E8070000FFFF7FFFC1
:1051C000FFEFFFFFFFFFFDFF030000687F220240AB
:1051D00001208A420BD31A680020920007D55B6B2E
:1051E0001B011B0F5B0007338B424041C0B270476D
:1051F00010B503681B0507D5C02212018358034C64
:10520000234009041943815010BDC046FFFFFCFF35
:1052100002680823120507D5C0231B01C258920358
:10522000920F033201239340D8B27047F8B50500BE
:105230000E00FFF7EDFF0830C4B22100802080008F
:10524000FBF796FCFF27074039003000FBF716FDFF
:10525000A4084C4339003000FBF78AFCC001241835
:105260002034A0002818F8BDF0B5DE4657464E465B
:105270004546E0B583B006008846140000930CABA9
:1052800080CB1B789B46FFF7D1FF050032687F2358
:105290001340434500D2D9E033689B0000D5DCE0E1
:1052A00033681B0509D5A37B002B06D0C022120151
:1052B000B15880231B060B43B350A3689A46DBB258
:1052C000FF229146402B05D8FF2352461340684ADF
:1052D000D35C9946002F5FD02E0008364B46D8B2DB
:1052E000FFF7B0FD01903900032213003B40174245
:1052F00017D1514691430A000321002A0FD09A0882
:105300009200B018BA5812BA02600433A2688A43F5
:105310009342F4D327E0736BC020800087E0130032
:1053200021E0032352469A43131E1CD0002303227C
:105330009446CA78120692468A781204504602436E
:1053400008780243487800020243980880008246A9
:10535000B24412BA5046026004330431A268604677
:1053600082439342E5D3A26803219A4208D91A00E6
:105370004A40B218F85C10700133A2689A42F6D81D
:105380000198904208D9032713007B40F318617BF2
:10539000197001329042F7D800232B606B6023799B
:1053A0000021012B20D02379002B0BD16B68314ACF
:1053B00013406B606A68009B9F042F4B1F4017438C
:1053C0006F60002122680F2A3ED04B461B04F0205C
:1053D000000303400B431C2A13D05946002913D065
:1053E000802149030B430FE06B685B0F5B076B6029
:1053F0006A68009BDB00DB0813436B60C021C903B4
:10540000D1E7802149030B43217B002916D01206E6
:10541000F02109050A401A4380231B061343A27B8F
:10542000002A02D08022D20513432B60002003B053
:10543000F0BCBB46B246A946A046F0BD1206F0211C
:1054400009050A401343EAE70020F0E733689B00B0
:1054500000D560E7C0208000E9E7736B1B011B0FDC
:105460005B000733984500D91AE7C0208000DEE7CB
:10547000FC070000FFFF03E00000FC1FF8B504007C
:105480000D0017001E00FFF7D1FE22687F23134096
:10549000AB4234D323689B0037D4002303604360BE
:1054A0003B790022012B1CD03B79002B0AD14368A9
:1054B0001B4A134043604268B6041A4B1E40164311
:1054C000466000223B680F2B17D01B06F021090510
:1054D0000B40134303600020F8BD636BC0208000C5
:1054E000FAE743685B0F5B0743604268F300DB0841
:1054F0001343436080229203D6E70020ECE7236841
:105500009B00EAD4C0208000E6E7636B1B011B0F01
:105510005B0007339D42C0D8C0208000DCE7C04656
:10552000FFFF03E00000FC1F10B5FFF77FFE0368DC
:1055300010BDF0B5CE46474680B583B08146170012
:10554000FFF774FE05000823984680443E000836A5
:1055500000680003000FFFF775FC04004846FFF7E2
:1055600057FEA04231D34823FC542B683B609B027A
:1055700030D56B687B60B3072FD10323200098439D
:10558000002300280AD09A08920041468918096829
:1055900009BAB1500433DBB28342F4D31A000832A3
:1055A000BF1803219C420BD91A004A40D2B20832DC
:1055B000AA1812783A700133DBB201379C42F3D15A
:1055C00003B0C0BCB946B046F0BD4846FFF720FE68
:1055D0000400C8E76B689B0CCCE7032322009A43C6
:1055E000944616D000236A46D61C03E00433DBB28F
:1055F0006345D3D29A0892004244126812BA0192CB
:105600000121DA1DBA18705C505401310529FAD114
:10561000ECE70023C2E70000F8B5CE46474680B568
:1056200080468946FFF7F4FD04004B465D1E2900C5
:105630004046FFF7FBFD2600A0239B0043440019D2
:105640000830834231D31E4B43445A4253415B01DD
:10565000994530D843461B687F22934315401D432C
:1056600043461D601A6880239B0515001D400020DD
:105670001A421CD14B46002B20D0290000270024C1
:105680004046FFF7D3FD04604460002E06D02B0097
:105690000830C218147001339E42FAD80137FFB2A5
:1056A00039004F45ECD3002001E0C0208000C0BC91
:1056B000B946B046F8BDC0208000F8E70020F6E704
:1056C00000C0FDBF10B5064B1B6ADB0703D50020E9
:1056D000FFF78EFB10BD0020FFF71EFBFAE7C04668
:1056E0000040024010B50F2200210020FFF704FA0D
:1056F00010BD10B51F2210210020FFF7FDF910BDCD
:1057000030B5456943698C7ACA7A944200D030BD7D
:105710008A69002AFBD01B0E0722134001249C40FB
:10572000A4B22D0A1540AC42F1D907254B691B786C
:10573000C3614B6901334B618B695A1E8A614369AE
:105740001B0A2B40002AE2D09C42EFD8DFE7000082
:1057500010B5882252008358114C23408350CB7ED1
:10576000002B07D18B68002B12D0103A83580D4CB8
:10577000234083508022520083580124A343835046
:1057800000238B700B618B60CB604B60CB7510BDC1
:10579000802252008358044C23408350EAE7C046DD
:1057A00044DFFFFFFFFFFFEFFFFFFFDF10B5024BFE
:1057B000185CFDF7A7FF10BD48080000F8B505000C
:1057C0000C0016001F000369194A134003613023BF
:1057D000CB5C002B1BD0002F07D06A6980231B02F3
:1057E0001A436A61AA691343AB61002E06D0802375
:1057F0009B00EB61DD3BFF3B0022E2540023636131
:10580000A361E360236122330122E254F8BD313306
:10581000C85CFEF7F9FC2369002B04D02B68054A0D
:1058200013402B60D7E72B68034A13402B60D2E765
:105830003CF6FFFFFFFFFFEFFFFFFFDF70B50D003E
:1058400083001F4A98581F4A9C58A369002B10D008
:10585000012928D00023A3614369032293434361B4
:105860000368194A1340036003690222134303616A
:1058700070BD2C23E25C00232100FFF79FFF2F2344
:10588000E35C002B0AD1012D17D00023A383636BA7
:10589000002BEDD0A16B06209847E9E720002E30C1
:1058A00001F0ECFCEFE72C23E25C00232100FFF782
:1058B00085FF2F23E35C002BF0D10123A383E6E7D0
:1058C0004008000024030020FFFFFFDF70B5040044
:1058D0000D00C37E002B09D0637D002B0AD0236A04
:1058E000002B02D0616A0420984770BD007FFEF74C
:1058F0008BFCF1E721002800FFF72AFFA37E002B95
:10590000EDD02000193001F0B9FCE8E730B585B0E2
:105910000C000B7C002B14D14000144BC15C207890
:10592000FEF77EFC6368A268617820780025039505
:10593000E4680294012401940095FEF72DFC05B063
:1059400030BD4000094B181841782078FEF768FCFC
:10595000A36862686178207800250395E468029462
:10596000012401940095FEF717FCE8E74C080000BD
:1059700030B587B08300254A9D58254A9C586368F6
:10598000002B29D001AB227F1A7001225A702A0005
:105990001532FF320292E268039200221A746268A2
:1059A000049201A9FFF7B2FF636859426B46187968
:1059B000FEF73EFC6B461879FEF71AFC6368002B75
:1059C0001AD0802149006B58124A1A4080239B0547
:1059D00013436B5007B030BD01AB227F1A70002219
:1059E0005A702A001532FF32029222690392012274
:1059F0001A74A2680492D4E7802149006B58064AC1
:105A00001A4080235B0513436B50E3E74008000016
:105A10002C030020FFFFFFDFFFFFFFEFF0B51500B5
:105A20008B7F032B1ED02423CB5C5A1E9341DB00BB
:105A300001332D228A5C002A39D10A8C5200AA181F
:105A4000D2B247693F0A45692D0E07263540012429
:105A5000AC403E40A4B2A64200D37EE01B029A189E
:105A6000C261F0BD2133CB5C002B01D00923E0E7FC
:105A70002333CF5C4669360A4269120E072422405E
:105A8000223B934034409BB29C4208D2C0239B00EF
:105A90009C466744C76124230122CA54E6E78B7AF7
:105AA0000322CA54CA18577101338B72F3E70C8C66
:105AB000E40906222240103AD2B247693C0AA446C1
:105AC0004669360E07273E400124B44066463740FB
:105AD000A4B2A7422BD21C02A218C2610F8CFFB243
