:1000000000200020651700007D1B00007F1B000002
:1000100000000000000000000000000000000000E0
:10002000000000000000000000000000811B000034
:100030000000000000000000831B0000851B000082
:10004000911B0000931B0000951B0000971B0000F4
:100050009B1B0000B11700009D1B0000A11B0000AE
:10006000B117000089250000B1170000A51B000092
:10007000A71B0000B1170000A91B0000AB1B00006C
:10008000AD1B0000991B0000AF1B0000B11B00005E
:100090009F1B0000A31B0000B31B0000B51B00004A
:1000A000B71B0000B91B0000BB1B0000BD1B0000FC
:1000B000B1170000B1170000B1170000BF1B00000E
:1000C000002243088B4274D303098B425FD3030A97
:1000D0008B4244D3030B8B4228D3030C8B420DD3AA
:1000E000FF22090212BA030C8B4202D31212090238
:1000F00065D0030B8B4219D300E0090AC30B8B4276
:1001000001D3CB03C01A5241830B8B4201D38B0323
:10011000C01A5241430B8B4201D34B03C01A5241C8
:10012000030B8B4201D30B03C01A5241C30A8B420B
:1001300001D3CB02C01A5241830A8B4201D38B02F6
:10014000C01A5241430A8B4201D34B02C01A52419A
:10015000030A8B4201D30B02C01A5241CDD2C3090C
:100160008B4201D3CB01C01A524183098B4201D388
:100170008B01C01A524143098B4201D34B01C01A73
:10018000524103098B4201D30B01C01A5241C308EB
:100190008B4201D3CB00C01A524183088B4201D35A
:1001A0008B00C01A524143088B4201D34B00C01A46
:1001B0005241411A00D20146524110467047FFE7B2
:1001C00001B5002000F006F802BDC0460029F7D0B6
:1001D00076E770477047C046844608006146FFE7EF
:1001E0001FB500F06DFB002801D40021C8421FBDDF
:1001F00010B500F0F9FA4042013010BD10B500F022
:100200005FFB002801DB002010BD012010BDC046AF
:1002100010B500F055FB002801DD002010BD0120C5
:1002200010BDC04610B500F005FB002801DC002021
:1002300010BD012010BDC04610B500F0FBFA00282B
:1002400001DA002010BD012010BDC0469E2110B56E
:10025000C905041CFFF7F0FF002803D1201C00F0A3
:1002600047FE10BD9E21201CC90500F093FC00F044
:100270003FFE80231B069C466044F2E7F0B5C6466D
:1002800043025B0A4E0245004F00DA00C40F9C4651
:10029000700A904600B52D0E3F0EC90FB6098C426C
:1002A0004BD0EA1B002A36DD002F61D0FF2D00D194
:1002B000ADE08023DB041E431B2A00DCD3E00120D9
:1002C0004346181A430100D48CE0800187093800A6
:1002D00001F020FA05388740854200DCB6E02D1A8F
:1002E000B3483840430704D00F230340042B00D009
:1002F0000430430100D478E06A1CFE2D65D08001F3
:10030000430A9C46D2B26346D0051843E407204313
:1003100080BCB846F0BD002A35D07A1B002D00D035
:10032000AFE04346002B00D1A7E0531E012A00D1C5
:100330002FE1FF2A69D01A00AAE0E91B002970DD2D
:10034000002F37D0FF2D62D08023DB041E431B29F2
:1003500000DCB0E001204044430143D50135FF2DCE
:1003600033D00123934A0340400810401843B9E7B3
:10037000002E00D183E0511E012A00D1D8E0FF2ACF
:1003800045D00A0098E7FE276A1C174200D086E095
:10039000002D00D0B7E04346002B00D1F3E000224F
:1003A000002EB0D0981B430100D4FAE043460C0065
:1003B000F01A97E7002E00D1C8E04A1E012900D1AB
:1003C000AEE0FF2923D01100C1E70023FF229C46A5
:1003D00099E7FE216A1C114277D0FF2AF5D015005B
:1003E00046447008430700D07EE7C308FF2D0ED0B7
:1003F0005B025B0A9C46EAB285E7002E07D08022AA
:10040000D203134203D0104201D10C000300002B91
:10041000DBD08020C00318434002430A9C46FF22E1
:1004200071E70029D5D07A1B002D60D14346002BFF
:1004300024D0531E012A73D0FF2AE7D01A001B2AAA
:1004400000DC85E001203D00801985E720233A008B
:10045000451B38000135EA405D1BA840431E98410A
:10046000002510433EE7202330009B1A31009840BE
:10047000D140431E9841084322E70C0003001500B9
:10048000B4E7FF2FC1D080234046DB0418438046E9
:100490001B2A51DD01200C003D00301A12E74346B3
:1004A0009F1B7B012BD4002F00D010E700230024DA
:1004B00000229C4627E7202332003000CA40591A08
:1004C0008840431E9841104345E7002D4AD14346DA
:1004D000002B63D00022002E00D114E730004044EE
:1004E000430100D47EE7324B013518407AE7FF2FF5
:1004F0008CD080234146DB04194388469FE743465E
:100500000C00F71AE3E64246002A00D075E7002EF9
:1005100000D07AE78023DB0300249C46FF22F2E62A
:10052000300040440125430100D45BE7022518E771
:1005300043460125981BC5E6202344464046D44047
:100540009A1A9040431E98412043A4E70D004DE7BE
:10055000202341464046D1409A1A9040431E98417C
:10056000084370E74246002A00D14FE7002E00D131
:100570004DE78022D203134200D148E7104200D059
:1005800045E7030043E7002E90D00C00844600228C
:10059000B9E643460C00F01A013593E68446002282
:1005A000B1E6002800D01DE7002300249C46AAE6FF
:1005B000FFFFFFFBFFFFFF7DF0B54F464646D646E7
:1005C0004502C0B547000C1C6D0A3F0EC60F002F38
:1005D00000D170E0FF2F00D175E0EB008025ED0425
:1005E0001D43002399469A467F3F6002430A98467E
:1005F00063001B0EE40F002B4ED0FF2B46D042466B
:10060000D0008022D2040243904600227F3B31007A
:10061000FF1A4B466140C9B213430F2B00D9B5E016
:100620006E489B00C3589F460023984626004546C7
:1006300092465346022B00D189E0032B00D19EE065
:10064000012B18D03B007F33002B69DD6A0704D0F3
:100650000F222A40042A00D004352A0103D5604B1A
:100660001D403B008033FE2B00DD70E0AD016D0AC4
:10067000D8B202E00E0000200025C0052843F6078E
:100680003043E0BCBA46B146A846F0BD4346002B15
:100690003FD10222FF3F03E04346002B2DD1012230
:1006A00031004B466140C9B213430F2B34D84D483B
:1006B0009B00C3589F46002D13D104239946033B4A
:1006C00000279A4691E7002D05D108239946063B5D
:1006D000FF279A4689E70C239946093BFF279A464C
:1006E00083E7280001F016F87627431F9D4000237A
:1006F0007F4299469A463F1A77E7404601F00AF84A
:100700004246431F9A4076235B4290461B1A0022C2
:100710007DE7FF2303227AE70E00FF200025ACE7E8
:100720000120C01A1B28A6DC9E372A00BD40C2400B
:100730006B1E9D4115436B0704D00F232B40042BE8
:1007400000D004356B0144D50120002595E7FF203A
:10075000002592E780250026FF20ED038DE700238A
:1007600098468020C003054209D04346034206D183
:10077000454605436D022600FF206D0A7DE7802077
:10078000C00305436D02FF206D0A76E742466B0108
:100790005001834219D21B220025013F01261C0073
:1007A0006D005B00002C01DB984201D81B1A354319
:1007B000013A002AF3D15A1E93411D433B007F3377
:1007C0000E00002B00DD41E7AAE71A2201251B1AC3
:1007D000E4E7AD0100206D0A4FE7C046405000003D
:1007E000FFFFFFF78050000070B5420045024E0247
:1007F0004C00C30F6D0A0120120E760A240EC90F99
:10080000FF2A06D0FF2C03D0A24201D1B54206D068
:1008100070BD002DFCD1FF2CFAD1002EF8D18B42F7
:1008200006D00120002AF3D12800431E9841EFE7AB
:100830000020EDE770B5420045024E024C00C30FA8
:100840006D0A120E760A240EC80FFF2A1BD0FF2C49
:100850000ED0002A1BD1002C01D1002E1CD0002D5F
:100860000CD083421CD00221581E0840013870BDB4
:10087000002E22D1002AF4D1002DF2D10028F6D189
:1008800001204042F3E7002D17D1FF2CF0D0002CBF
:10089000E7D1002EE5D1E6E70020002DE7D0E2E722
:1008A000A24205DCEADBB54202D8E7D30020DEE74E
:1008B0004342584140000138D9E702204042D6E780
:1008C00070B5420045024E024C00C30F6D0A120E75
:1008D000760A240EC80FFF2A0BD0FF2C0DD0002A59
:1008E0001FD1002C16D1002E14D10020002D10D0C5
:1008F00009E0002D0CD1FF2C13D1002E08D1002AC5
:1009000008D0834212D00221581E0840013800E06E
:10091000022070BD002DF4D10028FAD10120404200
:10092000F7E7002CEDD1002EEBD1ECE7A24205DC7D
:10093000F2DBB54202D8EFD30020EAE74342584148
:1009400040000138E5E7C046F0B54F464646D6467A
:1009500044024500C0B5640A0F1C2D0EC60F002DC1
:1009600000D18DE0FF2D00D192E000238020994638
:100970009A46E400C00404437F3D7802430A984647
:100980007B001B0EFF0F002B00D170E0FF2B00D16E
:1009900086E04246D00080227F3BED180023D2043F
:1009A000024390469C4631004B467940681C0F2B11
:1009B0001CD8764A9B00D3589F4639004446E246ED
:1009C0005346022B0FD0032B00D1D7E0012B37D198
:1009D00000200024C0052043C9070843E0BCBA46F4
:1009E000B146A846F0BDFF200024F3E7260C2404FE
:1009F000220C44462404240C434627001B0C574376
:100A000074435A435E4312193B0C9B189C4203D912
:100A100080225202944666443F041A043F0CD219C5
:100A20009401671EBC411B0C920E9B1914439B0141
:100A30001C431B0100D49BE0012362081C401443AB
:100A400002007F32002A64DD630704D00F232340B5
:100A5000042B00D00434230103D502004C4B803218
:100A60001C40FE2ABFDCA401640AD0B2B2E74346B0
:100A7000002B3DD14A4601331A4391469C4692E7EA
:100A8000002C29D104239946033B00259A4674E79C
:100A9000002C1BD108239946063BFF259A466CE79C
:100AA0004346FF35002B0BD102234A461A43914699
:100AB0009C4678E753463100022B00D083E792E74B
:100AC00003234A461A4391469C466CE70C239946F9
:100AD000093BFF259A4650E7200000F01BFE7625D3
:100AE000431F9C4000236D4299469A462D1A44E7C5
:100AF000404600F00FFE4246431F9A4000232D1A45
:100B000090469C46763D4EE780240021FF20E4037A
:100B100060E701239B1A1B2B00DD59E722009E3062
:100B2000DA4084401300621E94411C43630704D0E2
:100B30000F232340042B00D0043463011AD5012075
:100B4000002447E78020C003044209D04346034203
:100B500006D14446044364023900FF20640A39E7A1
:100B60008020C003044364023100FF20640A31E79F
:100B7000280065E7A4010020640A2BE78020C00359
:100B800004436402FF20640A24E7C046C05000000A
:100B9000FFFFFFF7F8B5CE46474643025B0A4E0219
:100BA000DA009446720A914645004A0080B52D0E3F
:100BB0001F00C40F120EC90FB609FF2A5BD0012017
:100BC00041408C4239D0A81A00285ADD002A6AD048
:100BD000FF2D00D1D9E08022D20416431B2800DC6F
:100BE000E9E001206346181A430100D4B4E0800113
:100BF0008709380000F08EFD05388740854200DC0B
:100C0000CCE02D1AB5483840430704D00F230340E9
:100C1000042B00D00430430100D4A0E06A1CFE2D58
:100C200000D18DE08001470AD2B2D0053843E407F5
:100C30002043C0BCB946B046F8BDA81A804600287B
:100C400045DD002A70D0FF2D00D19EE08023DB041B
:100C50001E4343461B2B00DCD2E0012060444301CD
:100C60007AD50135FF2D6BD001239D4A0340400802
:100C700010401843C8E7002E20D08C4223D0280013
:100C8000FF38002839D0571B002D00D09DE0634667
:100C9000002B00D1DBE07B1E012F00D10DE1FF2FE7
:100CA00071D01F0098E0002E00D1A7E0421E01285D
:100CB00000D1E6E0FF2868D010008FE70120414016
:100CC000A14200D07FE7FF2040428046A844404632
:100CD000002838D0511B002D00D1AEE0FF2A00D1F2
:100CE000DFE080236046DB04184384461B2900DCD8
:100CF000D9E0012015008019B1E7FE206A1C1042DE
:100D000071D1002D00D0A6E06346002B00D1D9E0C0
:100D10000022002E00D188E7981B430100D4E1E0B7
:100D200063460C00F01A6FE7002E00D1B7E0020016
:100D3000013A012800D19CE0FF2826D0904688E7A0
:100D4000FF22002771E7FE206A1C104264D0FF2AB0
:100D5000F6D0150066447008430700D056E7C30874
:100D6000FF2D12D05B025F0AEAB25EE76246002AFC
:100D700000D196E0002E08D08022D203134204D086
:100D80004846104201D10C004B46002BD8D080279A
:100D9000FF031F437F02FF227F0A46E720233A001A
:100DA000451B38000135EA405D1BA840431E9841B1
:100DB0000025104328E720231B1A32009E40C24022
:100DC0003000431E984110430CE7FF2ADBD08023FC
:100DD0006046DB04184384461B2F56DD01200C00BF
:100DE0001500301A00E763469F1B7B013DD4002F9E
:100DF00000D0FEE600240022002716E70500AFE73A
:100E0000320043464146DA4020235B1A9E403000C0
:100E1000431E9841104321E7002DA7D16346002BC4
:100E200059D00022002E00D1FFE63000604443017B
:100E300092D52A4B013518408EE76346002B47D0E8
:100E40004B1E012915D0FF292BD019004EE70C00AD
:100E50004B463D0084E76246002A8BD1002E92D19A
:100E600080270024FF22FF03DFE663460C00F71A09
:100E7000BFE6300060440125430100D46CE7022541
:100E8000F2E663460125981BAEE6202364466046E1
:100E9000FC40DF1BB840431E984120439FE70500FC
:100EA0005EE74B4671E7202365466046CD40591A00
:100EB0008840431E984128431CE763460C000125E7
:100EC000F01A91E6002E95D00C004F460022ACE6B9
:100ED0004B460D0044E74F460022A6E6FFFFFFFB0E
:100EE000FFFFFF7D002800D036E7002400279CE6A6
:100EF00041024200C30F490A0020120E7E2A03DD80
:100F00009D2A02DD094A9818704780200004014399
:100F1000952A07DC9620821AD1404842002BF3D153
:100F20000800F1E7963A9140F7E7C046FFFFFF7FE0
:100F3000F8B5002813D0C317C6185E40C40F3000A0
:100F400000F0E8FB9E2305001B1A962B0FDC0828F7
:100F500001DD083DAE407602760AD8B202E00024F8
:100F600000200026C0053043E4072043F8BD992B3C
:100F70000CDD05223100121AD1400A0001003000B8
:100F80001B318840411E884102431600052D12DCAA
:100F900031000D4F3940720709D00F20304004282E
:100FA00005D004314A0102D59F2339405B1B8901DA
:100FB0004E0AD8B2D6E76A1F96403100024F394038
:100FC0007207F4D0E9E7C046FFFFFFFBF0B55746D4
:100FD0004E464546DE46E0B5814605000C03480016
:100FE00092461F0085B0240B400DCE0F002800D183
:100FF00056E1D44B984200D172E16B0FE4001C43E0
:1010000080231B0423439846CF4BED009B460023CF
:101010009946834400933C037B005046240B5B0DB0
:10102000FF0F002B00D11FE1C64A934200D162E1BD
:10103000C549420F8C46E40059461443802263445C
:101040001204CB1A14439B46C200002033007B409D
:101050009A464B460F2B27D8BC499B00CB589F463E
:10106000B246009B022B16D0032B00D18EE2012B3F
:1010700000D0D9E000230024002552461B0523435D
:10108000D20713432800190005B0F0BCBB46B24696
:10109000A946A046F0BD00240025AA4BEDE7BA46BC
:1010A000A04615000090DCE7444500D2C7E100D11E
:1010B000C2E101235B429C462E0040460025E344EA
:1010C0002302140E1C431B0C994623041F0C12020E
:1010D000494600920197FFF779F802007A430B0422
:1010E000310C804619438A4207D901235B429C4652
:1010F0000919E0448C4200D807E2881A4946FFF7F4
:1011000065F809048C4631046646019A090C42438D
:10111000030031438A4204D90919013B8C4200D8AB
:10112000EDE1881A424612041A4390464146009B5C
:101130000E041B0C1F000293009B360C1B04190CA1
:101140000B007343120C7E43039151437A431F0CEF
:10115000BC4676186644B14203D9802149028C46C8
:101160006244310C8A1831041E04360C8E199042E8
:1011700002D312D1B54210D24346591E009B9C4661
:1011800065441F009D429B415B421B19C01884426D
:1011900000D2A0E100D19BE18846AE1BB542AD4133
:1011A000801A6D42401B844200D1D5E14946FFF7C9
:1011B0000DF8019A0B044243310C050019438A4291
:1011C00000D96CE1881A4946FFF700F8019A360405
:1011D00042430904360C03000E43B24200D953E1E6
:1011E0000398B61A02002D041D43029F2B041B0C0A
:1011F0005A437B439C46290C4843130C8444634464
:101200007943984203D98020400284466144180CF7
:1012100012041B04120C41189B188E4200D2FFE0EE
:1012200000D1FAE001231D43494A5A44002A00DC58
:10123000AAE06B0700D03DE1ED084346DB0106D58F
:101240004246444B1A4090468022D2005A44424BB8
:101250009A4200DD1FE743465B071D4343465205A4
:101260005C02240B530D08E75246224300D17BE079
:10127000002C00D1FAE0200000F04CFA02000B3AFA
:101280001D2301009B1A52460839DA408C40144352
:1012900052468A40314B58449B4683440020D5E651
:1012A0004B462343984644D0002C00D1CEE020008A
:1012B00000F030FA010002000B391D235B1A494689
:1012C0001000D940083884400B004D46234398460F
:1012D00085402348831A9B460023994600939AE64B
:1012E0004B46234398461DD108239946063B0025CB
:1012F000834600938FE65246224309D10223494692
:101300001943184B89469C4600240220E3449DE67D
:1013100003234A461A43134B91469C4652460320E8
:10132000E34493E60C239946093BA0468346009389
:1013300071E60423994600239B4601330025009360
:1013400069E6C046FF07000001FCFFFF00510000F6
:10135000FF030000FFFFFFFEFE070000F303000095
:101360000DFCFFFF01F8FFFF4946012319438946A1
:10137000002401206AE6002380249A4600258A4B37
:1013800024037AE601256D4201239B1A382B00DDE8
:1013900070E61F2B00DCBFE01F2149428A1A41463C
:1013A000D1400A00202B04D04146804B5B44994039
:1013B0000D436B1E9D4107232A431D000024154049
:1013C000134200D1D4E00F2100231140042900D1A1
:1013D000CBE0111D9142924152429B180A00190222
:1013E00000D4C2E001230024002546E680234146C4
:1013F0001B03194208D01C4206D11C432403BA46E1
:101400001500694B240B38E68024434624031C4313
:101410002403B246644B240B2FE6002B00D103E7D4
:10142000A619681EA64200D28DE08E4200D2A3E02B
:1014300000D1B3E00500F5E6AA4200D939E64346FB
:10144000DE0758086B081E43ED0739E6484600F0F2
:1014500061F901000200153120321C2900DC2CE763
:101460004B46083883400025984632E700F052F991
:1014700003001A00153220301C2A00DC00E7544615
:10148000083B00229C4005E73619013BB44200D9D5
:10149000A6E6B24200D8A3E6831E3619A0E60919D3
:1014A000013D8C4200D98DE68A4200D88AE6851E2D
:1014B000091987E60F232B40042B00D1BCE6052336
:1014C0005B42AB429B4104355B42ED089844B4E675
:1014D000AF4200D960E6824204D800D05CE6AE425A
:1014E00000D859E602235B429C46009BE0449C46A0
:1014F00065449D429B415B421B19C0184DE68A42E0
:1015000000D80EE6831E09190BE68A4200D8F4E5DE
:10151000831E98460919F0E52549280059448D4055
:1015200042468A40691E8D414146D840D940024317
:101530002A430B00510700D151E70F211140042924
:1015400000D046E74BE705008E4200D06AE6009ADD
:10155000934200D066E667E6164A5A44002A00DC49
:1015600010E701230025984467E65D075B021C0B2A
:10157000D2080023154380E50098023D42008242D4
:10158000BF417F423C1936190092DDE78024434673
:1015900024031C432403044B240B6EE5009A9A4257
:1015A000EAD30500D3E7C046FF0700003E04000071
:1015B0001E040000FF03000010B5041E10D000F050
:1015C000A9F80F4B1B1A0A2811DC0B222100121A52
:1015D000D14015300A035B058440120B5B0D01E01E
:1015E000002300221B0513432000190010BD220018
:1015F0000B3882405B0512030024120B5B0DF1E7F0
:101600001E04000002004B00F0B55B0D0C033D4EC4
:10161000640A400F5F1CC90F0443D50037420AD04B
:1016200039481E18FE2E16DDFF200024C005204379
:10163000C9070843F0BD002B06D12C4326D0052254
:101640009201540AD8B2F1E72543EDD08020C003BF
:101650000443FF20EAE7002E1BDD9201531E9A414E
:10166000E4006D0F22432A43530748D00F23134051
:10167000042B00D004328023DB0413403FD0701CC5
:10168000FE2ED1D09201540AC0B2CFE70020002430
:10169000CCE73200173222DB8020000420431E24D6
:1016A000A41B1F2C1DDD02225242961B0200F24099
:1016B0001600202C04D0154A9446634498400543F4
:1016C0002A00531E9A41324300265307CED180246C
:1016D0001300E404012023402242D3D1B0E70023C9
:1016E000ADE70B4A94462A00E24014002A00634406
:1016F0009A409840551EAA4102432243E4E7330032
:101700009EE7C046FE07000080FCFFFFA2FCFFFF33
:1017100082FCFFFF1C2101231B04984201D3000C13
:1017200010391B0A984201D3000A08391B09984254
:1017300001D30009043902A2105C40187047C0466A
:10174000040302020101010100000000000000008A
:1017500003B47146490840004900095E49008E44BF
:1017600003BC70470C488546002103E00B4B5B58D7
:10177000435004310A480B4B42189A42F6D30A4AA6
:1017800002E0002313600432084B9A42F9D300F0C0
:101790001BFE00F00FF8FEE7002000203C5B00007D
:1017A000000000209C0000209C000020B8030020C6
:1017B000FEE700003022012110B5054801F046FC8B
:1017C000012802D100F004FDFEE730220021F4E7F9
:1017D00000000240F7B505000B0434D4F7BD1B4FE1
:1017E0002800390000F062FF0F22194C23780133E2
:1017F0001A40184B01921B789A421BD02278164B44
:1018000039681201D1502278797A12019B180A1C8A
:10181000082900D908221A71207822780E4B12016B
:1018200000019A180530C01812790C4902F037F9F6
:10183000019B2370280000F0C8FD0028CED0013E97
:10184000002ECCD1CAE7064EF4E7C046A400002023
:10185000B8000020BC010020BC0000209C0000203B
:1018600089130000F0B58FB002AD04AC2800082148
:1018700001AE01F082FB2000282101F07EFB300048
:10188000042101F07AFB0122324F1100380001F0EF
:101890007EFB38000122022101F079FB8021012228
:1018A0003800890301F07CFB280001F014FA0123C1
:1018B0000022294F290038002B80AB71AA7001F05B
:1018C00099F938000322002101F01AFA38000322A6
:1018D000012101F015FA8021012300221F4F2980E8
:1018E00038002900AB70AA7101F084F9380080211A
:1018F00001F002FA05233370DB187370073BB370F5
:10190000013BF370BE330993BC3B2370144B0022A0
:101910000C93144B62800D9301236271E380227259
:10192000114B124A21001A61114B124A12481A61D6
:101930000A9600F03FFFC220104B80001A58104951
:1019400011408022D2010A431A50802292001A606C
:101950000FB0F0BD00000240001402400010024031
:1019600000000020D5170000C8010020C0010020A1
:10197000A40000209C0000200054004000E100E092
:10198000FF00FFFFF8B504000F00161C082A00D95D
:10199000082600211A48F6B200F03DFD002829D1A2
:1019A00072B6184D32002C6000243900AC81164804
:1019B000EC726E7202F073F822002900104800F0F9
:1019C00001FE220021000E4800F004FD62B6012055
:1019D0000FE0013D00210A4800F01DFD00280CD059
:1019E000002DF6D180230020084A1B0111680B430B
:1019F0001360F8BDFA256D00ECE7002DD0D1F1E7BA
:101A000000540040C8010020C0010020A054004044
:101A100030B572B60C4B0D4A19781378994202D141
:101A200062B6002030BD1178094B09015B18010036
:101A300031CB31C11B680B600F21137801330B4090
:101A4000137062B60120EDE7B8000020BC01002051
:101A5000BC000020F7B501221F4C1100200001F04E
:101A600096FA1E4D20000122022101F090FA012277
:101A70002000042101F08BFA2800202101F038F920
:101A80002800402101F034F9684601F024F90024CF
:101A90006A4601266023124F28006946967013801B
:101AA0005471947101F0A6F83800802101F024F9F6
:101AB0006A46802338006946967013805471947189
:101AC00001F098F86A46074B280069469671138022
:101AD000947001F08FF8F7BD00000240001802403A
:101AE0000010024000C0FFFF802110B51E48C90150
:101AF00001F0F8F81D4A041E20D11378FF2B14D1F1
:101B00001B4B1A78002A16D080211748090201F0D1
:101B1000E9F8184A002821D11378FF2B12D1164B6F
:101B20001A78002A14D0200010BD0133DBB21370E4
:101B3000032BE9D9E4E701241C70E5E700240C4BF2
:101B40001470F9E70133DBB21370032BEBD9E6E72E
:101B500002200122041B1A70E4B2E4E70023137090
:101B6000054A1370DFE7C04600180240DC01002080
:101B7000DD010020DE010020DF010020FEE7FEE79E
:101B8000FEE7FEE710B501F0C9FA01F013FB10BD46
:101B9000704770477047704770477047704770478D
:101BA000704770477047704770477047704770477D
:101BB000704770477047704770477047704770476D
:101BC00070B5144D18220021280001F071FF002487
:101BD00001232C802B75AC700F4D4021280001F0A3
:101BE00087F82800202101F083F8210020000B4A0B
:101BF00000F04AFA20000221094A00F045FA2000CC
:101C00000421084A00F040FA06212000064A00F0AC
:101C10003BFA70BDE4010020001802404051000072
:101C200051510000625100007351000010B50128AD
:101C300015D1124B1A78002A07D11870104801F0FC
:101C40003FFF01220D4B1A7510BD012A03D102324C
:101C50000C481A70F3E700220B481A70EFE70228CD
:101C6000F2D1064B5A78002A03D1013207485A7044
:101C7000E5E7002206485A70E1E7C046E40100208B
:101C800084510000AB510000E651000011520000E9
:101C90003D520000802370B55B0098421AD10E4877
:101CA0000E4D03692E78013303610B7803215A0727
:101CB00019400B4CD20F1B098E4202D12678964256
:101CC00008D0227001240170427004750548297003
:101CD00001F0F6FE70BDC046E40100203100002096
:101CE000300000206A520000002110B5204C88B05E
:101CF00001910291A278022A03D1E37859424B4123
:101D0000591C04202379D2009B0003401430024068
:101D100013436A460B431371637A0F221900684616
:101D20001140013313404171073A124801A963720F
:101D3000FFF728FEE368104A581C1378E06001336F
:101D4000DBB2042B02D8137008B010BD0024FA21B6
:101D500014708900FEF73AFA084A0B0003A8112113
:101D600001F090FF0621200003AA00F08DF9EBE7B7
:101D7000E401002001020000E00100209C5200006C
:101D800010B51B4C1B4B227888B0012A06D01A4B89
:101D9000022A03D0194B032A00D1194B6178194A42
:101DA000012900D0154A1121009203A8164A01F01A
:101DB00069FF0221002003AA00F066F9A378022B34
:101DC00011D12278237A032A09D1104A002B00D19D
:101DD0000F4A0421002000F057F908B010BD0D4A49
:101DE000002BF6D1F4E70C4A012BF2D00B4AF0E7B6
:101DF000E4010020AE520000B25200005E5100002B
:101E0000B6520000BA520000BE520000CE5200008E
:101E1000DF520000F0520000015300001253000096
:101E2000022370B5224C002526789E43012E27D12F
:101E300020212048A370257100F05AFFE388013368
:101E40009BB2182B11D8E380257A40211948002D28
:101E500012D000F051FF0123E370237D002B03D04B
:101E6000FFF78EFF0023237570BD237AE5805A4269
:101E7000534126752372E7E700F03AFFE570ECE77F
:101E800040210C48E5802572E57000F031FF637851
:101E9000012B06D120210748A370237100F02CFFED
:101EA000DBE720210348A570257100F021FFD4E76E
:101EB000E40100200018024070B50D4C0500237F9E
:101EC0000E00022B05D00121200000F0C1FF0223EB
:101ED000237733002A007821200001F003F800283E
:101EE00005D00121200000F0B3FF0223237770BD4D
:101EF000FC01002007B500236A46022150711371CE
:101F000001A8FFF7D9FF07BD503910B50400C8B2CA
:101F1000FFF7F0FF102023091843FFF7EBFF0F2016
:101F20002040FFF7E7FF10BD4023F0B587B001AEBA
:101F300033706B4610220021581D01F0B9FD0024BA
:101F4000082721000020FFF7DFFF3D00013D11239E
:101F5000320078210548EDB200F0C4FF002DF5D124
:101F60000134E4B2082CECD107B0F0BDFC01002034
:101F700037B50821684601F000F801223E4C1100F7
:101F8000200001F004F820000122042101F008F8EB
:101F9000C0236A460124394D1B012800694613807D
:101FA00094705471947100F025FE280003220B21D7
:101FB00000F0A6FE03220A21280000F0A1FE30480E
:101FC000304B4460036010238460446100244377F5
:101FD0008133FF330361047700F0DDFEAE20FFF7AD
:101FE00089FFD520FFF786FF8020FFF783FFA82019
:101FF000FFF780FF3F20FFF77DFFD320FFF77AFF39
:102000002000FFF777FF4020FFF774FF8D20FFF7D8
:1020100071FF1420FFF76EFF2020FFF76BFF0220F7
:10202000FFF768FFA120FFF765FFC820FFF762FFF9
:10203000DA20FFF75FFF1220FFF75CFF8120FFF738
:1020400059FFCF20FFF756FFD920FFF753FFF120AC
:10205000FFF750FFDB20FFF74DFF3020FFF74AFF6F
:10206000A420FFF747FFA620FFF744FFAF20FFF7AC
:1020700041FFFFF759FF37BD00000240001002404A
:10208000FC010020000C0040F0B5A7B003910292C3
:1020900004000022FF21D3B20193029B9B56002B28
:1020A00004D1019B002B09D127B0F0BD13000B40D8
:1020B000DB001B190132802BEDDDF2E7402205AB7E
:1020C0001A7004AB5F1D3E000025029B595D20394C
:1020D000C9B25E2900D900211C4B09010822300039
:1020E000C91801F0DCFC0135019AEBB208369A42BE
:1020F000EBD820000399FFF707FF019B05A8DD003F
:1021000001352900FFF7D8FE0026029B995D203992
:10211000C9B25E2900D900210C4B090108310822FF
:102120003800C91801F0BBFC0136019AF3B2083738
:102130009A42EAD8039920000131C9B2FFF7E4FEC0
:10214000290005A8FFF7B8FEAEE7C04623530000FC
:10215000704710B5FFF7C8FC002801D0FFF766FDF7
:1021600010BD00001FB56846FFF752FC041E09D1E0
:10217000FFF756FE094A13780133DBB2042B08D867
:1021800013701FBD6B4600981A79591DFFF782FD29
:10219000E9E71470FFF7A8FDF3E7C046BC02002092
:1021A00070470000C021074A074B08485360036A84
:1021B00009061B021B0A0B430362002393600733CB
:1021C0001360704710E000E07FBB000000ED00E00E
:1021D0007FB5802601250024FFF73CFC360600F081
:1021E00059F8FFF7C5FEFFF73DFBFFF7E9FC134A7F
:1021F0001349002001F036F8019500960222114B98
:1022000011490294114801F065F82A0001950096E1
:102210000F4B10490294104801F05CF8FC23220097
:102220000E499B050195009602940D4801F052F865
:10223000FFF7B8FF01F092F87FBDC04651210000C2
:102240006F12833A0AD7A33B532100008802002073
:102250000AD7A33C6521000020020020A121000034
:1022600054020020F8B580270E0015000024FF0559
:10227000AC4201DB2800F8BD33570A2B03D10D21F6
:10228000380000F063FC315D380000F05FFC013481
:10229000EEE70000F0B589B001AC03AF20000821E3
:1022A00000F06BFE3800142100F067FE012280264A
:1022B000384D1100280000F073FEF60501220221BE
:1022C000280000F064FE300000F068FB0823324D67
:1022D000210028002380073BA370A37100F08AFC33
:1022E00003222800110000F00BFD0021012304222D
:1022F0002800A1702100A371228000F07BFC032242
:102300000221280000F0FCFC300000F073FB234B9E
:1023100004220393E1235B020493214B39000593CC
:10232000C02330009B0206933A8200F06BFB8021B1
:1023300000223000890300F011FC8022194B520367
:10234000DA67BFF34F8FBFF36F8F4022DA67BFF3B7
:102350004F8FBFF36F8F144B3E3A1868002380688D
:10236000190001F0C7FB114801F0AAFB104801F069
:10237000A7FB104801F0A4FB0F4801F0A1FB0F4898
:1023800001F09EFB0E4801F09BFB0E4801F098FB0C
:1023900009B0F0BD0000024000140240006CDC02F5
:1023A0000200010004E100E03800002013590000A1
:1023B0004F59000087590000C0590000F95900002A
:1023C000325A0000155900007047A03000688001A3
:1023D000800F70470300A03330B51D6880242800AB
:1023E000A4012040254214D1002906D1802218687A
:1023F000520102431A60080030BD1968012A05D154
:102400008022D2000A431A600100F4E78022920081
:10241000F8E70121EFE7A0300068002902D1C004ED
:10242000C00F7047C023DB001840431E9841C0B264
:10243000F7E70000A4300368024A090613400B4383
:1024400003607047FFFFFFF01022A030036809010E
:1024500093430B43036070470822A0300368C90010
:1024600093430B4303607047A0300368024AC905D9
:1024700013400B4303607047FFFF7FFFA0300368EA
:10248000024A490513400B4303607047FFFFDFFF1B
:10249000A0300368024A890713400B43036070476A
:1024A000FFFFFFBFA0300368C9075B005B080B4359
:1024B00003607047B0300368024AC90313400B43FE
:1024C00003607047FF7FFFFFFE22B030D201090298
:1024D00003681140024A1340194301607047C04627
:1024E000FF80FFFFB4300368024A490213400B43E8
:1024F00003607047FFFDFFFF80235B028B40B43019
:10250000002A03D0026813430360704702689A43AD
:102510000260FAE7020010B52024B4321368C90043
:10252000A343C908B8301360016010BD0200202326
:1025300010B5B4321468490023434908B830136019
:10254000016010BD0D4B70B5C51804006B1E9D4198
:102550000C22A43423686A43094925681940094BB1
:102560000D43D1509B189B682560002B05D00200BD
:10257000B03212681206520F984770BD00ACFFBF10
:1025800000FFD500C002002010B50248FFF7DAFFB7
:1025900010BDC046005400400320034A136D83431E
:1025A0000B4313657047C04600000240082806D957
:1025B0000938C3B20020062B01D8014AD05C70470D
:1025C0006C5A0000F7B5060005000192A036002AFB
:1025D0003AD13368324A1340324A3360A818421E57
:1025E00090410C225043304A0B6812185279DB009C
:1025F000DB08002A02D08022120613432B650F232A
:10260000487A8A7A0340002A01D0102213430C7BB7
:10261000002C01D040221343CA7A002A03D0402262
:102620009343203A13434A7B002A01D0802213436C
:102630006B65002C0DD0019B012B04D180233268E7
:10264000DB0313433360F7BD802332681B0213435F
:10265000C2E70028EFD00F69002FECD0FFF7A6FFEC
:10266000BB071AD18442E6D2A3083A5916339B001D
:1026700004345A51E4B2F5E73A19537891781B02C1
:102680000904D2780B43395D12060B431343A208A9
:102690001632920004345351E4B28442ECD3CAE7B8
:1026A000FF7FFFFF00ACFFBFC0020020F7B50700AF
:1026B000A0373B6804009B010E0001209B0F4FD008
:1026C0002368DB00DB080B602368DB0F0B72636899
:1026D0001B0903408B7263685B090340CB7265681A
:1026E0000193AD0905400D736368DB0918400F23A2
:1026F0004873606818404872002D29D1002827D0FF
:102700000B690093002B23D0FFF750FF019A0300C1
:10271000002A03D1082800D90823DBB20321009A3C
:1027200000980A4008421CD1072B1BD9AA08023284
:102730009200125900994A510435EDB2AB42F5D8D6
:1027400006E0815C3569A9540132D1B28B42F8D8D8
:10275000A36C0020736080233A685B0513433B60E1
:10276000FEBD002220000830EFE7F7B5019308AB6B
:102770001F780300A0331B6804000D00012600929F
:102780001B0614D500263A00FFF7B6FEB7420ED05E
:1027900023000F22B4331968200091430D431D60BC
:1027A0000099FFF7B7FE20000199FFF7BFFE300048
:1027B000FEBD0000734BF0B5C3185A1E934185B09F
:1027C000DAB203920C22534300220C006E4905003A
:1027D0005A50E1786D4B8032012900D0ACE0196D80
:1027E0000A431A6503220399D8684A43684989183D
:1027F000012249788A400243DA602A008021A0320F
:1028000013680B431360A2691378D1781B0609047F
:102810005B189178527809025B189B182A00A8323D
:102820001360A37B002B1BD0E17B2800FFF71CFE6D
:10283000E2691378D1781B0609045B189178527805
:1028400009025B189B182A00AC321360217C002916
:1028500006D02800FFF72EFE2800617CFFF734FE2B
:102860000026276AB74200D077E02B008021A033F2
:102870001A688A431A60A278012A00D071E0802287
:102880001968D2010A431A602F00C0220C26A4370F
:102890003B68D2051B011B0913433B60280061788C
:1028A000FFF7C8FD2800E179FFF7CEFD2800217A67
:1028B000FFF7D2FD28002179FFF7E0FD2800217BFA
:1028C000FFF7E6FD039B5E432F4B9E196379B371BF
:1028D000636AB360637A002B0FD0A17A0398FFF785
:1028E0005BFE637A28007371E17AFFF7FBFD8022BB
:1028F000B4352B68520013432B603B68254A1340C4
:10290000626913433B60A279002A13D00C23039918
:102910004B431D49CB181A710323039A53431C4A96
:102920009B56002B06DB1F2213401E3A9A401300D1
:10293000194A136005B0F0BD196D9143196551E74F
:102940000C237343FA18F95C5378280000939368BA
:102950005268FFF70AFF0136F6B22378B342EFD888
:1029600083E7022A02D119681E328BE7032A00D0BE
:102970008AE719683D320A431A602800617BFFF735
:1029800091FD81E700ACFFBFC002002000000240C3
:10299000735A000001FFD5FF00E100E0802310B56D
:1029A000DB05984210D101221048110000F002FB13
:1029B000C046C046C046C046C046C04600220121AF
:1029C0000A4800F0F7FA10BD094B9842FBD10122EA
:1029D0000221064800F0EEFAC046C046C046C04696
:1029E000C046C04600220221EAE7C046000002407D
:1029F000000400400222836813438360836893438A
:102A000083607047F7B503690C0001938369050083
:102A100008680093FEF7D0FD6368060018010F00F8
:102A2000FEF7CAFD02000B0030003900FEF7CEFAB7
:102A3000FEF7E8FD3C4B019A061C1A400192FEF796
:102A400057FA0700FEF774FA011C301CFEF7A2F8D3
:102A50003649FDF779FFFEF74BFA042800DD013710
:102A6000019BF804C00C18432389032B0CD0042BC2
:102A700016D0F0272E4A3F05012B34D18023009930
:102A80001B010B43104009E02A4B009A284F1A40C3
:102A9000130038401022F02713433F05074306E098
:102AA000244B009ABC271A401300BF0507436289D4
:102AB000022A1DD1802292011743A289012A1AD02D
:102AC000022A1DD002229343E289012A1AD11A4A0E
:102AD00013408022D2021343228A042A20D11343B6
:102AE0002F61AB61F7BD154B009919400B00C9E789
:102AF000134A1740E1E793431A0002231343E3E725
:102B00000322FBE7022A04D10E4A1340802212035B
:102B1000E1E7032A01D1C022F9E70B4A1340DBE7C2
:102B200004229343DCE7C04600E0FFE000002041C0
:102B3000FFFFFFDFFFF7FFFFFFFFF7FFEFF7FFFFED
:102B4000FFDFFFFFFFFFFBFFFFFFF3FF80231B04FF
:102B500042691A42FCD0C16170470000F7B50025F8
:102B6000CBB2053B2E0001920A2B04D81F4A5B0012
:102B70009E5A1F4A9D5A0F230A0080279A4313002A
:102B80001400BF00BA420DD08022520094461A00B1
:102B9000634507D06744BB4204D080246246A4004A
:102BA0000C400A40019900290FD081690B438361D1
:102BB00003691E43066103691D430561836A1C4363
:102BC0008462836A1A438262F7BD81699943816195
:102BD0000369B34303610369AB430361836AA3439E
:102BE0008362836A93438362EEE7C046765A0000AD
:102BF0008C5A0000F7B50B880F26019320235B4207
:102C00000093002301259D40019A2A40954237D127
:102C1000072B3CD89A0094466446826CE2403240CE
:102C20000F2A03D1A240876C974387648F78EA43C9
:102C3000012F37D107683D43056045681540456061
:102C40004D7947689D403D43456003245F00BC408B
:102C5000C56BA543C5638D79C46BBD402543C56372
:102C6000056C15400564CD78076C9D403D430564B7
:102C7000456C2A4042640A79456C9A402A43426472
:102C8000009A013304320092102BBBD1F7BDC26C05
:102C9000009CE24032400F2AC8D1A240C76C974343
:102CA000C764C3E7002F03D1056815400560CCE772
:102CB000022FCAD1072B07D834009D00AC40250055
:102CC000876C3D438564C0E73500009CC76CA54018
:102CD0003D43C564B9E7002302220380428083801C
:102CE00083717047C0680840431E9841C0B2704766
:102CF000C36A1943C1627047036B1943016370478C
:102D00000F2330B5072909D889008B408A40846C8D
:102D10009C438464836C1A43826430BD3C25194013
:102D20000839890029408B408A40C46C9C43C464A4
:102D3000C36C1A43C264F0E72023026811680B4396
:102D400013607047054B10B55A68002A04D05968C3
:102D50000348FDF7B5F910BD0248FCE7000002404A
:102D6000C0E1E40080C3C90110B5002902D0FFF71B
:102D7000E3FF10BD2021026813688B431360F8E75E
:102D8000036818680007C00F7047082102681368BD
:102D90008B4313607047F8B505000120002D42D029
:102DA00040212A6813688B431360FFF7CBFFAA68A2
:102DB00004232E692C68012A39D02268134323602A
:102DC000EB68A2685B0013436A69A360012A2BD0F9
:102DD0000123A2681343A3606B68002B0ED0FA2175
:102DE0008900FDF76DF9F7003900C01BFDF768F9A0
:102DF0000123C0B26061226913432361C822012309
:102E00005200964217D222689A43226040232268D9
:102E1000280013432360FFF7B8FF02230020286235
:102E20002B77013BAB61F8BDA3689343D3E72268DE
:102E30009A432260D0E7226813432360E6E7102319
:102E4000026810B511680B431360FFF79EFF10BDB9
:102E500010B5002902D0FFF7F2FF10BD1021026863
:102E600013688B431360F8E710B503685960FFF7E8
:102E70008CFF10BD0B0010B5040001208343002A15
:102E800001D003000B432268002120005360FFF7AC
:102E90006BFF2000FFF779FF10BD70B504000D0037
:102EA000FFF76EFF0223002803D02368DB682B6046
:102EB0000123180070BDF8B506000F0000F036F9C8
:102EC000050039003000FFF7E8FF040000F02EF99C
:102ED000401B092801D8022CF3D0013C63425C411D
:102EE000E0B2F8BDF0B5FF2787B0019102920393DD
:102EF00005970400037F0220834224D10423002588
:102F000023770C33637720002562FFF715FF20003D
:102F100005A9FFF7D0FF059E082E02D008232377CE
:102F20000EE06B462A00197920000597FFF7A2FFF3
:102F3000200005A9FFF7BFFF059B182B13D02677AC
:102F40000120A369236207B0F0BD029B2000595DF8
:102F50000597FFF789FF200005A9FFF7ACFF059B48
:102F6000282BDBD10135039BAB42EED82000FFF7C5
:102F700066FF022300202377E5E7002803D0002323
:102F80004118884200D1704703700130F9E7836827
:102F9000002A02D01943816070478B438360FBE7AE
:102FA000C368002A02D01943C16070478B43C360D5
:102FB000FBE70000064B0366436C002A04D019436C
:102FC0004164044B036670478B434364F9E7C04692
:102FD0009966AA559866AA55002282B00192184AAD
:102FE00003000266002924D03F21C26A15488A43A3
:102FF00011003A220A4320211218DA621A6A8A431F
:10300000110042220A43402112181A62D86A019A1A
:10301000084001320192019A013203D00028F5D014
:10302000012002E0421E9041C0B2074A1A6602B077
:1030300070474221026A8A43024952180262EFE74E
:103040009966AA550000695A9866AA55002337B5B3
:1030500005001400019301290DD1FFF7BDFF0028E1
:1030600046D0244B202C35D008D8102C36D0182C24
:1030700032D0214A05E0C0239B03F3E7282CF8D186
:103080001E4A072113431E4A2A661E4AEB64136830
:103090008B43FB31242C04D8133C112C20D98021E4
:1030A00049000B4372B61360136062B68021C903F6
:1030B000EB6C019A0B4001320192019A013212D05D
:1030C000002BF5D00F226B6A012093436B620E4BED
:1030D0006B620BE00D4AD4E70D4AD2E70D4AD0E708
:1030E0000221FF31DDE700208342EBD10A4B2B6642
:1030F0003EBDC0460800300044600000445000005F
:103100009966AA55000402400400695A4440000030
:1031100044300000442000009866AA55024A136813
:10312000013313607047C046CC020020014B186881
:103130007047C046CC020020014B18687047C0465B
:10314000D002002010B50021041CFDF76BF8002808
:1031500002D00120014B1C6010BDC046D4020020EB
:10316000064A030011680020994203D0834202D02E
:10317000012013607047024BFAE7C046340000207C
:103180003931000010B50021041CFDF74BF8002870
:103190000BD0074B201C1968FDF70EFAFC2189059E
:1031A000FDF76CF8FDF752F810BD0020FAE7C046B5
:1031B000D4020020024A1368013313607047C046EE
:1031C000D0020020054B70B51B680C000500984725
:1031D000451B0020A5424041C0B270BD3400002014
:1031E00010B5034C2368002B01D09847A06010BD98
:1031F000D8020020034A10B55368002B01D0906814
:10320000984710BDD802002000210C4A831CDB0027
:10321000D318F0B559601569C3009B18083385426F
:1032200003DC1369013B1361F0BD19001C000C3174
:103230001434C0CCC0C10130F0E7C046E402002025
:1032400010B5FFF7CDFF00220121054B49425A611D
:10325000DA615A621961DA60FFF7CCFF10BDC0462F
:10326000E402002070B50C1C05000021201C160093
:10327000FCF7D8FF00281FD0104800F01EFA1048B5
:1032800000F01BFA0F4800F018FA0F4800F015FA8A
:103290000E4800F012FA201CFFF754FF0C4C266079
:1032A000FFF7CEFF002328002364A36063646360FC
:1032B000E363FFF755FF012070BDC0468C0300207B
:1032C000740300202C030020440300205C03002032
:1032D000E4020020F7B504000020019308AB20CBE6
:1032E00016001F780091844232D001003422200061
:1032F00000F0DEFB2000009B019963611C3000F0B0
:1033000085FB0A9BE360331C022E00D902232200B6
:103310003132137080231B069D4200D06D42230082
:1033200065620025BD223033A5621D70E562E36A47
:1033300039009343E3624223E26A20001343E362CD
:1033400000F088FB2100034A0348A56100F0EFF973
:10335000FEBDC046FFFFFF7F74030020F0B50027CD
:103360008DB0BE4C2369002B2ADBFFF739FF636960
:1033700031331A78E369181E0ED031331B780020E0
:103380009A4201D21A000130636A002B04D0313313
:103390001B78934200D90220831CDB00E3189A6853
:1033A0005D68E260FFF730FFFFF724FF002D07D0D4
:1033B0002B00022230331A70EB6A3E321343EB6269
:1033C00004AD2800A64909AE00F0E6FA330007CDA7
:1033D00007C3002300930021300000F0EFFA00281B
:1033E00009D0300000F003FB236C0500002B4CD00B
:1033F000616C236C9847009B27646764002B00D1A5
:1034000014E1984D6B69002B0ED004AE29003000FA
:1034100000F0C2FA09AB07CE07C3002109A800F0EB
:10342000CDFA002800D094E08F4B183D9D42E9D1A1
:103430002300BC331B68002B04D08C4A8C4988487D
:1034400000F05EFA0421E36B0B428AD00123E26BA9
:103450009A43E263E26B8A43E263E26BD2089343EE
:103460002200353213702300092234331A700023EE
:10347000E362A368002B01D07E4898470223012015
:10348000E26B1343E3630DB0F0BD4022C36A134205
:103490002AD00300303301931B78022B45D0C36A36
:1034A0009B0717D5436A002B14D0036A03930300CC
:1034B0001C331800029300F0C0FA039B002B01D0CC
:1034C000002807D0029800F095FA0123019A1370A2
:1034D000009309E0AB6A002B04D00323019A137018
:1034E000023BF5E7019A1370012200215C48524229
:1034F00000F055F9EB6A1B0619D5FFF771FEE36979
:103500009D4202D10120FFF77FFE636A9D4202D1F6
:103510000220FFF779FEFFF76DFE8022EB6A9343EE
:10352000EB62300000F05CFA55E70123D0E72B0096
:1035300030331B784E48002B06D02B001820313337
:103540001B7858434C4BC0182900484A00F0EFF84C
:10355000E7E709A800F04BFA0300303300931B782B
:103560000600022B5ED0032B56D0012B28D1436AD4
:1035700038003E4A9918414A8A42784184462000E0
:103580006246363002703D4A914202D85B42013BAE
:1035900003E0802212069342F9D17362736A5942A2
:1035A0005941220037321170002B03D10222F36AF5
:1035B0009343F362324B1B689847F369C01AA063C8
:1035C0002300009A3433127866601A700122F36A7D
:1035D0009A43230035331A70F368E3627369002B52
:1035E00001D02448984701220021280052426760F8
:1035F00000F0D5F831001D4A194800F098F8012272
:10360000F36A09A81343F3623036E786A76327639A
:10361000377000F0E5F900E703692363836A013B33
:103620008362CDE7E368E7602363C9E72268002A85
:1036300000D1FDE60123E16B0E4849088B432100D0
:1036400035310B70009B0A21E3622300343319707B
:1036500090470223E26B1343E363E9E6E4020020B0
:10366000740300205C03002014030020FFFFFF7F91
:103670008C030020100300202C030020FEFFFF7F9E
:1036800034000020C06A0840431E9841C0B2704711
:10369000C36A012A02D11943C16270478B43C362D6
:1036A000FBE7037A012B02D1036842689A6000208D
:1036B000704700687047406870470022904203D00E
:1036C000C2600261426101207047031E10D082680F
:1036D000101E0DD0D16899420ED11968D160002911
:1036E00007D11161516901200139516100229A60AD
:1036F000704700204860F5E710695968984207D183
:103700001161002901D1D160ECE700200860E9E7F0
:10371000186808600028E5D04160E3E70200081E51
:1037200004D08868801A43425841C0B27047F8B547
:1037300005000C001600071E1BD00F1E19D0002715
:10374000531C16DBFFF7EAFFB84212D1EB686A6937
:1037500060602060A060BB4202D1EC602C6104E09C
:10376000711C08D123605C60EC60012701326A6142
:10377000A5603800F8BD511EB14205DC2B691C6004
:103780006360EBE70B0001301968864201DD002918
:10379000F8D12160196863604C601C60E5E7F8B5FA
:1037A000C46805000F001600002C0AD0531C08DB6B
:1037B000FFF7B4FF002807D03800FFF786FF002886
:1037C00000D100273800F8BD6B69002E0CDC2268A0
:1037D000EA60002A06D12A610022013BA26027008C
:1037E0006B61EFE75060F7E7B34208DC2C69626871
:1037F0002A61002A01D1EA60EEE71060ECE7013EA1
:1038000021002468864201DD002C05D122680A606F
:10381000002AE1D05160DFE70130F1E770B5060022
:103820000D001400081E18D0301E16D0104A934206
:1038300003D0104900208B420FD1210028003560B1
:1038400093420BD1FFF76AFF002800D1EC68231EDA
:1038500000D0236801207360B46070BDFFF75EFF85
:10386000002800D12C69231EF4D06368F2E7C0461B
:10387000B3360000B7360000F0B585B01E00070073
:103880000D000A9B00282BD0081E29D01A498E4211
:1038900003D01A4C0020A64222D100208446FC68A6
:1038A000200064451CD0604602926A460190107365
:1038B0008E4200D03C69002B03D09A68974200D119
:1038C0001C0001A8A84700280AD101236A461373E7
:1038D000002C07D102236A4601A813730194A8475C
:1038E00005B0F0BD2000B047070001A80194A8472B
:1038F0000028F5D13C00EBE7B3360000B7360000F6
:10390000F0B585B004000E00051E039225D00D1EF3
:1039100023D01300002501331FDBCB68AB421CD042
:1039200002001B4B1B4930000095FFF7A5FFE36821
:10393000F26831696069AB4202D1E260216105E061
:10394000039F01370CD10B605960E2607369C018A6
:1039500060613000FFF7B1FE0500280005B0F0BD42
:10396000471EBC46039FBC4510DC23691A605360A8
:10397000E4E701239C442B00039F1D68674501DD9C
:10398000002DF6D10D6053601A60DFE7AC46F3E717
:10399000B3360000A336000030B5040085B001AD99
:1039A00000222800044BFFF739FF230007CD07C38F
:1039B000200005B030BDC046B336000070B505002C
:1039C0000C1E04D183685A1E9341D8B270BD0068A2
:1039D000FFF7A4FE00239842F7D0AB681B1BF2E769
:1039E00043681A1E00D01A6842608360704780687E
:1039F0007047000010B5041E04D0034B1B689847A5
:103A00002060012010BDC0463400002070B50500C4
:103A10000E1CFFF7EFFF0400012805D1301CFFF753
:103A2000B1FB6860200070BD0024FBE7002803D0D4
:103A30004068431E9841C0B2704710B5041E08D0BC
:103A4000FFF7F4FF03000020012B02D103CCFFF7A6
:103A5000B9FB10BD70B504000D00061E1BD0022975
:103A60001BD009D90026032915D1002240212000AE
:103A7000FFF70EFE01260EE00221FFF703FE0126EE
:103A8000A84208D020002A000221FFF701FE2000F2
:103A90001C30FFF7AFFF300070BD0122E6E70023C6
:103AA00010B59A4200D110BDCC5CC4540133F8E784
:103AB00003008218934200D1704719700133F9E76F
:103AC0000FB40B4B13B51C68002C05D0A369002B59
:103AD00002D1200000F038FA05AB2000049AA1685A
:103AE000019300F0B7FD16BC08BC04B01847C046EF
:103AF00038000020F0B51D005D4B85B01E68040045
:103B00000F000092002E05D0B369002B02D13000C7
:103B100000F01AFA574B9C4261D17468009B022B4B
:103B200005D0012B00D99DE0002D00DA9AE0636EEC
:103B3000DB0705D4A3899B0502D4A06D00F0A5FA8C
:103B40002100300000F05EF9616B002908D02300ED
:103B50004433994202D0300000F010FB002363632D
:103B60000023A3616360A3891B0603D5300021698C
:103B700000F004FBA389404A1340A381009B022B61
:103B800000D169E003AB2100300002AA00F080FA06
:103B9000A3890343A381002D2BD1029D280000F0AF
:103BA000E3FA071E53D1029B0193AB4249D1012591
:103BB0006D420223A289616E13430022A26022009B
:103BC00047322260226101221BB2A381626111424D
:103BD00034D19B0532D4A06D00F058FA2EE0274B6B
:103BE0009C4201D1B46899E7254B9C4296D1F46878
:103BF00094E7002FD2D0B369002B02D1300000F03F
:103C0000A3F9009B012B02D1A2891343A381A289AE
:103C10000823110027602761656119401A421FD0EF
:103C2000D3071BD500236D42A360A561616E0123FC
:103C30000D001D40194218D19305CCD5280005B0C0
:103C4000F0BD019800F090FA019D071EAFD08023CF
:103C5000A2891343A381CEE70025AAE7A560E5E783
:103C6000A160E3E701256D42E8E70025E6E7C046ED
:103C700038000020C85A00005CF3FFFFE85A00003B
:103C8000A85A00000CB430B5174B0C001D689DB04D
:103C9000002908DA8B2301202B6040421DB030BC84
:103CA00008BC02B0184782236A469B009382002317
:103CB00002900690994200D04B1E04930793012373
:103CC0006A465B42D382280021AB209A02A9019365
:103CD00000F098FB431C01DA8B232B60002CDDD015
:103CE0000023029A1370D9E738000020F7B58B89BA
:103CF00005000C001A075FD44A68002A04DC0A6C2D
:103D0000002A01DC0020FEBDE76A002FFAD0002265
:103D100080212E682A601A0049010A400B4234D0E3
:103D2000606DA3895B0706D56368C01A636B002BBF
:103D300001D0236CC01A0200216A00232800E76A20
:103D4000B847A189431C06D12B681D2B31D82C4ABA
:103D5000DA40D3072DD50023636023692360CB04A9
:103D600005D5431C02D12B68002B00D16065616B27
:103D70002E600029C6D023004433994202D0280087
:103D800000F0FCF900206063BDE701232800216AF0
:103D9000B847431CC5D12B68002BC2D01D2B01D0C6
:103DA000162B01D12E60ADE74023A2891343A381D6
:103DB000A9E740230B43FAE70F69002FA2D00A6856
:103DC0000F60D21B019200229B0700D14A69A260BA
:103DD000019B002B00DC95E73A002800019B216A3B
:103DE000A66AB047002806DC40230120A289404291
:103DF0001343A38187E7019B3F181B1A0193E7E751
:103E0000010040200B6970B505000C00002B02D1A9
:103E10000025280070BD002804D08369002B01D143
:103E200000F092F8144B9C421BD16C680C22A35EEC
:103E3000002BEDD0626ED20704D49B0502D4A06D96
:103E400000F023F928002100FFF750FF636E050002
:103E5000DB07DED4A3899B05DBD4A06D00F016F947
:103E6000D7E7064B9C4201D1AC68DFE7044B9C428C
:103E7000DCD1EC68DAE7C046C85A0000E85A000016
:103E8000A85A0000002310B504000360436083605B
:103E9000818143661900C281036143618361082205
:103EA0005C30FFF705FE054B24626362044BA3629E
:103EB000044BE362044B236310BDC046F14B00008A
:103EC000194C0000514C00007D4C000010B5024917
:103ED00000F0BAF810BDC046053E000070B5682578
:103EE0004A1E55430E002900743100F0B3F9041E38
:103EF00008D000212A00016046600C30A0606832C2
:103F0000FFF7D6FD200070BD10B5024800F0BDF8E7
:103F100010BDC046A503002010B5024800F0B6F859
:103F200010BDC046A503002010B5024800F0ADF852
:103F300010BDC046A603002010B5024800F0A6F848
:103F400010BDC046A603002013B50400FFF7ECFF28
:103F5000A369002B02D0FFF7EFFF13BDA364E36456
:103F60002365134B134A1B68A2620193A34201D13C
:103F70000123A361200000F01FF86060200000F022
:103F80001BF8A060200000F017F800220421E06078
:103F90006068FFF777FF01220921A068FFF772FF31
:103FA00002221221E068FFF76DFF0123A361D2E72F
:103FB000A45A0000CD3E0000F8B50700FFF7A4FFAB
:103FC0001F4B1E68B369002B02D13000FFF7BCFF06
:103FD0004836B4687368013B04D53368002B22D09F
:103FE0003668F6E70C22A55E002D1AD12000154B8D
:103FF0005830E360656600F047F8FFF78DFF20005A
:10400000082229002560A560656025616561A561BC
:104010005C30FFF74DFD6563A563A564E564200092
:10402000F8BD6834D7E704213800FFF757FF041EB6
:104030003060D5D1FFF770FF0C233B60EFE7C0463F
:10404000A45A00000100FFFFF7B504000600002796
:10405000019148346368A5680093009B013B00937D
:1040600004D52468002CF5D13800FEBDAB89012BA6
:1040700008D90E22AB5E013304D029003000019B29
:10408000984707436835E8E7704770477047000076
:1040900070B50E001D000E23C95E140096B00029F5
:1040A00008DA0C22B35E00222A601B0611D480239A
:1040B000DB000FE06A4600F0DBFE0028F1DBF023B6
:1040C00001991B021940054BC9184B4259412960FF
:1040D000EDE740230020236016B070BD00E0FFFF35
:1040E000F7B502268B8905000C00334206D0230069
:1040F00047332360236101236361F7BD6A4601AB47
:10410000FFF7C6FF00990700280000F0A3F8002879
:1041100008D10C22A35E9A05EFD4032293431E43D9
:10412000A681E4E70F4BAB628023A2892060134392
:10413000A381009B20616361019B002B0DD02800AF
:104140000E23E15E00F0A6FE002806D00322A3891C
:1041500093431A0001231343A381A0890743A78136
:10416000CBE7C046CD3E000010B5034B01001868F8
:1041700000F070F810BDC0463800002070B5050092
:10418000002910D00C1F2368002B00DAE418280047
:1041900000F0C4FE1D4A1368002B05D16360146053
:1041A000280000F0C3FE70BDA34208D92168601842
:1041B0008342F3D118685B6841182160EEE71A006A
:1041C0005B68002B01D0A342F9D911685018A042B6
:1041D0000BD120680918501811608342E0D118688B
:1041E0005B68411811605360DAE7A04202D90C23E2
:1041F0002B60D5E721686018834203D118685B689B
:104200004118216063605460CAE7C046A8030020DB
:1042100070B50F4E0D0031680400002902D100F086
:10422000D5FC30602900200000F0D0FC431C0AD0EF
:104230000323C51C9D43A84207D0291A200000F083
:10424000C5FC431C01D101256D42280070BDC0464C
:10425000AC030020F7B50322CB1C934308330600C0
:104260001F000C2B32D20C27B94231D8300000F09D
:1042700055FE324D2B681C00002C2ED13900300029
:10428000FFF7C6FF0400431C1ED12C682500002D3B
:104290004AD123682900E3183000019300F096FC0E
:1042A000019B834243D123680337FF1A03239F43B3
:1042B00008370C2F00D20C2739003000FFF7A8FF79
:1042C000431C34D02368DF19276013E0002BCBDABE
:1042D0000C23002533602800FEBD2268D11B20D4AA
:1042E0000B2917D9E2192760A34211D12A6063680C
:1042F000116053603000250000F018FE07220B35D6
:10430000231D9543EA1A9D42E5D05B1BA350E2E7CB
:104310005A60ECE76268A34201D12A60EAE75A607A
:10432000E8E723006468A7E72C006D68AFE70C237B
:104330003000336000F0FAFDCDE7C046A80300204E
:10434000F0B58E6885B007000C00039201939E4281
:104350003CD890238A89DB001A4234D0096923684B
:1043600060695B1A029303234343DD0FED18019B41
:10437000029801331B186D10AB4200D91D00530584
:1043800032D529003800FFF765FF061E09D10C233E
:104390003B6040230120A28940421343A38105B022
:1043A000F0BD029A2169FFF77AFBA389144A1A40EB
:1043B00080231343A381029B2661F6182660656162
:1043C000019EED1AA560019B9E4200D9019E32001C
:1043D0000399206800F08FFDA36800209B1BA36059
:1043E00023689E192660DAE72A00380000F0A6FD4F
:1043F000061EE0D138002169FFF7C0FEC7E7C046BE
:104400007FFBFFFFF0B5A1B003901D008B890F006B
:1044100016001B0611D50B69002B0ED14021FFF7AA
:1044200019FF38603861002805D10C23039A013840
:10443000136021B0F0BD40237B61002308AC6361B1
:10444000203363761033A376079535002B78002B45
:1044500001D0252B47D1AB1B0593B5420CD03200C0
:1044600039000398FFF76CFF431C00D1AEE062698E
:10447000059B9446634463612B78002B00D1A5E033
:10448000012200235242626004A9543252186E1C69
:104490002360E360A3601370A3650522317854485C
:1044A00000F01EFD751C00281FD12268D30604D51C
:1044B000532304A95B1820211970130704D5532333
:1044C00004A95B182B21197033782A2B16D03500DC
:1044D00000210A20E3682A786E1C303A092A4ED956
:1044E000002911D117E00135B0E7414B2268C01A0D
:1044F0000123834013432E002360CEE7079B191D41
:104500001B680791002B01DB0B9304E05B42E36027
:104510000223134323602B782E2B0AD16B782A2B8E
:1045200035D1079B02351A1D1B680792002B2BDB28
:104530000993304E03223000297800F0D1FC002886
:1045400006D04023801B834022680135134323603B
:104550002978062228486E1C217600F0C1FC00282C
:104560003CD0264B002B25D10722079B07339343D2
:10457000083307936369049A9B18636165E74343B3
:10458000350001219B18A6E701235B42D0E70023F9
:104590000A201A000135636029786E1C3039092918
:1045A00003D9002BC5D00992C3E74243350001234C
:1045B0005218F1E707AB00933A002100104B039823
:1045C00000E000BF0490049B0133D3D1BB890D9858
:1045D0005B0600D42DE7012040422AE707AB009399
:1045E0003A002100064B039800F0DEF9EAE7C046E6
:1045F000085B00000E5B0000125B00000000000082
:1046000041430000936810B5013B9360002B04DA2E
:104610009469A34207DB0A2905D01368581C10606F
:104620001970080010BD00F02FFB0100F9E7F8B584
:1046300006000F001400D518AC4201D1002007E09D
:1046400021783A003000FFF7DDFF0134431CF3D13D
:10465000F8BD0000F0B5A1B006000C001F000392E9
:10466000002804D08369002B01D1FFF76DFC8E4B2D
:104670009C421CD17468636EDB0705D4A3899B053B
:1046800002D4A06DFFF701FDA3891B0702D52369A2
:10469000002B1DD12100300000F060FB002817D056
:1046A000636EDB070DD50120404221B0F0BD7F4B8A
:1046B0009C4201D1B468DEE77D4B9C42DBD1F468BB
:1046C000D9E7A3899B05EED4A06DFFF7DFFCEAE7ED
:1046D000002308AD6B6120336B761033AB76079700
:1046E000039F3B78002B01D0252B4ED1039BFB1A57
:1046F0000593039B9F420DD0059B21003000039A38
:10470000FFF795FF431C00D1B5E06A69059B94460D
:1047100063446B613B78002B00D1ACE001227B1C31
:104720000393002352426A6004A9543252182B604A
:10473000EB60AB601370AB65039B052219785D4895
:1047400000F0CEFB039B5F1C002820D12A68D30613
:1047500004D5532304A95B1820211970130704D52D
:10476000532304A95B182B211970039B1B782A2B58
:1047700016D00021EB68039F3A78781C303A8446C3
:10478000092A4FD9002911D117E00137A9E7494B70
:104790002A68C01A0123834013432B600397CBE799
:1047A000079B191D1B680791002B01DB0B9304E08D
:1047B0005B42EB60022313432B603B782E2B0AD124
:1047C0007B782A2B37D1079B02371A1D1B6807926B
:1047D000002B2DDB099303223978374800F080FB4A
:1047E000002807D0344B2A68C01A40238340134363
:1047F00001372B6039787B1C0622304803932976D9
:1048000000F06EFB002845D02D4B002B27D107224E
:10481000079B07339343083307936B69049A9B18EC
:104820006B615DE70A214B4367469B180939A3E793
:1048300001235B42CEE700231A0001376B60397811
:10484000781C30398446092903D9002BC3D009923A
:10485000C1E70A235A4367465218093BEFE707AB03
:104860000093220029003000164B00E000BF0490A6
:10487000049B0133D1D1636EDB0705D4A3899B056B
:1048800002D4A06DFFF702FCA3895B0600D50AE7FE
:104890000D980AE707AB0093220029003000094B6E
:1048A00000F082F8E3E7C046C85A0000E85A00006A
:1048B000A85A0000085B00000E5B0000125B0000BD
:1048C000000000002F460000F7B5150001938A682C
:1048D0000B690C000090934200DA130022002B6059
:1048E00043321278002A01D001332B6023689B06E3
:1048F00002D52B6802332B602268062317001F4065
:104900001A4227D0230043331B785A1E9341226852
:10491000920630D4220001990098089E4332B04795
:10492000431C25D0062320682A68E168002503403F
:10493000042B03D18D1AEB43DB171D40A3682269BA
:10494000934201DD9B1AED180027BD4220D10020C3
:1049500010E00137E3682A689B1ABB42D2DD2200CF
:10496000012301990098089E1932B047431CF0D1E9
:1049700001204042FEBD3020E11843310870210083
:104980005A1C45310978A218433202331170C1E72D
:104990002200012301990098089E1A32B047431C57
:1049A000E6D00137D1E70000F0B58BB006920A00DF
:1049B00043320793059004920A7E0C00109B782ADC
:1049C00007D8622A09D8002A00D1C1E0582A00D1AC
:1049D0008CE026004236327022E010006338152841
:1049E000F7D8FCF7B5FE16001F00F6FFF6FFF6FF3E
:1049F000F6FF1F00F6FFF6FFF6FFF6FFA8003600F1
:104A00009A00F6FFF6FFB900F6FF3600F6FFF6FF54
:104A10009E0026001A684236111D19601368337013
:104A20000123A7E0086819680A1D05060BD50D6863
:104A30001A60002D03DA2D23049A6D421370614B26
:104A40000A2703931BE00D681A604106F1D52DB2C9
:104A5000EFE70D681968081D18602E0601D50D686E
:104A600003E06D06FBD50D68ADB2564B08270393E6
:104A70006F2A00D002372300002243331A70636884
:104A8000A360002B03DB0422216891432160002DE9
:104A900002D1049E002B0CD0049E28003900FBF7A5
:104AA00095FB039B013E5B5C33702B0005009F422E
:104AB000F3D9082F09D12368DB0706D5636822697B
:104AC000934202DC3023013E3370049B9B1B236125
:104AD000079B210000930598069B09AAFFF7F4FEA7
:104AE000431C4CD1012040420BB0F0BD45310A704F
:104AF000344A03921A68216820CA1A60080616D53B
:104B0000CB0702D52023194321601027002DB2D1F5
:104B1000202322689A432260ADE7202209680A43D5
:104B200022602200782145321170274AE1E74806C9
:104B3000E6D5ADB2E4E71A680D68101D4969186042
:104B400013682E0601D5196002E06D06FBD51980A9
:104B50000023049E2361BBE71A68111D19601668C3
:104B600000213000626800F0BBF9002801D0801BF2
:104B70006060636823610023049A1370A8E72369C7
:104B8000320006990598079DA847431CAAD02368C0
:104B90009B0715D4099BE0689842A5DA1800A3E7A3
:104BA0002200012306990598079E1932B047431C3D
:104BB00098D00135E368099A9B1AAB42F0DCE9E72B
:104BC0000025F7E7195B00002A5B0000002370B5A1
:104BD000064D040008002B6000F024FA431C03D1AA
:104BE0002B68002B00D0236070BDC046B0030020AE
:104BF00070B50C000E25495F00F0D0F9002803DBEA
:104C0000636D1B18636570BDA389024A1340A381BD
:104C1000F9E7C046FFEFFFFFF8B51F008B890500DD
:104C20000C001600DB0505D50E23C95E0022022309
:104C300000F042F9A389054A28001340A3813200FD
:104C40000E23E15E3B0000F075F8F8BDFFEFFFFFBB
:104C500070B50C000E25495F00F02EF9A389421CA7
:104C600003D1054A1340A38170BD80225201134332
:104C7000A3816065F8E7C046FFEFFFFF10B50E2384
:104C8000C95E00F0E3F810BDF8B505000E00140091
:104C9000002804D08369002B01D1FFF755F9224B7E
:104CA0009C422ED16C68A369A360A3891B0732D5EF
:104CB0002369002B2FD023682269F7B2981A636901
:104CC000F6B2834205DC21002800FFF79BF800289C
:104CD00027D1A3680130013BA36023685A1C2260DE
:104CE0001F706369834204D0A389DB0707D50A2EAE
:104CF00005D121002800FFF785F8002811D13000E8
:104D0000F8BD0A4B9C4201D1AC68CCE7084B9C42F1
:104D1000C9D1EC68C7E72100280000F01FF800287F
:104D2000C9D001267642EAE7C85A0000E85A0000D6
:104D3000A85A000070B50400080011001A000023F2
:104D4000054D2B60FDF78EFA431C03D12B68002B19
:104D500000D0236070BDC046B0030020374B70B553
:104D60001D6806000C00002D05D0AB69002B02D198
:104D70002800FFF7E9F8324B9C420FD16C680C23F6
:104D8000E25E93B211072DD4D90611D40923012074
:104D9000336037331343A381404270BD294B9C429B
:104DA00001D1AC68EBE7284B9C42E8D1EC68E6E720
:104DB0005B0713D5616B002908D023004433994267
:104DC00002D03000FFF7DAF9002363632422A389BD
:104DD0009343A38100236360236923600823A2898E
:104DE0001343A3812369002B0BD1A0218022A38927
:104DF000890092000B40934203D021003000FFF75E
:104E00006FF90C22A35E01201A0099B202400342FE
:104E10000FD00022A26062695242A2610020226982
:104E20008242BAD10A06B8D540221343A381013881
:104E3000B3E7880700D46269A260EFE7380000207A
:104E4000C85A0000E85A0000A85A0000002370B5B4
:104E5000064D040008002B6000F0BCF8431C03D191
:104E60002B68002B00D0236070BDC046B00300202B
:104E7000002370B5064D0400080011002B6000F0FF
:104E8000B1F8431C03D12B68002B00D0236070BD08
:104E9000B0030020002370B5064D040008002B600D
:104EA00000F0A8F8431C03D12B68002B00D023602E
:104EB00070BDC046B003002070B5040008001100AA
:104EC0001A000023054D2B6000F09CF8431C03D111
:104ED0002B68002B00D0236070BDC046B0030020BB
:104EE000C9B28218904201D10020704703788B42EA
:104EF000FBD00130F6E710B5884202D98B189842F2
:104F000003D3002307E08B5C8354013AFBD210BD2E
:104F1000CC5CC45401339A42FAD1F8E710B5024888
:104F2000FFF7B3F810BDC046A403002010B5024837
:104F3000FFF7ACF810BDC046A4030020F7B507008A
:104F40000E001400002905D11100FFF783F90500B8
:104F50002800FEBD002A03D1FFF710F92500F7E76E
:104F600000F030F80190844203D835004308A34292
:104F7000EED321003800FFF76DF9051EE8D0019B44
:104F800022009C4200D91A0031002800FEF787FD5C
:104F900031003800FFF7F2F8DAE7000070B50400DE
:104FA000080011001A000023054D2B6000F032F8B4
:104FB000431C03D12B68002B00D0236070BDC0467A
:104FC000B00300200B1F1B68181F002B01DA0B58C1
:104FD000C018704758220120014B40421A607047A8
:104FE000B003002058220120014B40421A60704754
:104FF000B00300205822024B00201A607047C046C0
:10500000B003002058220120014B40421A60704733
:10501000B003002058220120014B40421A60704723
:10502000B0030020044A03001068002802D0C3180F
:10503000136070470148FAE7B4030020B80300206A
:105040008C07000018070000740600002C06000002
:105050007406000054070000740600002C060000CF
:105060001807000018070000540700002C06000075
:10507000320600003206000032060000620700001F
:10508000180700001807000074060000280600003A
:105090007406000054070000740600002806000093
:1050A0001807000018070000540700002806000039
:1050B0003206000032060000320600005E070000E3
:1050C000EC090000BC090000BC090000BA0900009E
:1050D000C0090000C0090000080B0000BA09000068
:1050E000C0090000080B0000C0090000BA09000058
:1050F000B40A0000B40A0000B40A0000440B000027
:10510000A810000096100000741000009E1000000F
:105110007410000076130000741000009E10000050
:105120009610000096100000761300009E100000FC
:10513000601000006010000060100000EC13000020
:105140005B435053204C454654204C414D50205D0C
:1051500000434D443A20543A4F464620503A4F4679
:1051600046005B414C4C204C414D5053204F46462D
:105170005D200054583A307832303120433A303094
:10518000302020000D0A5B445249564552205354AA
:10519000414C4B5D204C656674205475726E2053F3
:1051A000656C6563746564210D0A000D0A5B4452E9
:1051B00049564552205354414C4B5D2048617A6119
:1051C0007264205761726E696E672028446F756241
:1051D0006C6520466C617368292053656C65637447
:1051E0006564210D0A000D0A5B4452495645522060
:1051F0005354414C4B5D205475726E205369676E59
:10520000616C205475726E6564204F46462E0D0AFF
:10521000000D0A5B445249564552204B4E4F425DA9
:1052200020506F736974696F6E204C6967687420D1
:105230005475726E6564204F4E210D0A000D0A5B95
:10524000445249564552204B4E4F425D20506F7399
:105250006974696F6E204C69676874205475726E4A
:105260006564204F46462E0D0A005B42434D204E9A
:10527000455720434D445D205475726E436D643D27
:1052800025752C20506F73436D643D25752C20527D
:105290006F6C6C436E743D25750D0A0054583A309E
:1052A0007832303120433A253033752020004C5479
:1052B000200052542000485A20004F4E2000434DF9
:1052C000443A20543A257320503A257320003C3C40
:1052D0003C202048415A41524420203E3E3E00207E
:1052E00020205B5052494F3A5455524E5D202000C9
:1052F0003C3C3C204C454654205455524E202020E6
:10530000005B20504F53204C49474854204F4E20BB
:105310005D005B20414C4C204C414D5053204F468A
:10532000465D0000000000000000000000000000DA
:10533000000000000000F800000000000000333012
:1053400000000000100C06100C0600000000000019
:1053500000000040C07840C0784000043F04043F93
:10536000040400007088FC08300000001820FF21B1
:105370001E0000F008F000E018000000211C031ED1
:1053800021000000F00888700000001E212324196D
:1053900027211010160E0000000000000000000081
:1053A000000000000000E0180402000000000718E0
:1053B00020400000020418E0000000004020180710
:1053C000000000404080F0804040000202010F01D8
:1053D000020200000000F0000000000101011F01B6
:1053E000010100000000000000000080B07000001B
:1053F00000000000000000000000000001010101A9
:105400000101010000000000000000003030000039
:105410000000000000000080601804006018060111
:1054200000000000E010080810E000000F1020202D
:10543000100F00001010F8000000000020203F2096
:10544000200000007008080888700000302824221E
:1054500021300000300888884830000018202020C3
:10546000110E000000C02010F800000007042424E2
:105470003F240000F88888880808000019212020AF
:10548000110E0000E0108888180000000F11202085
:10549000110E0000380404C43C04000000003F006A
:1054A0000000000070880808887000001C2221217C
:1054B000221C0000E010080810E000000031222249
:1054C000110F00000000C0C00000000000003030DC
:1054D000000000000000800000000000008060006C
:1054E00000000000008040201008000001020408B5
:1054F00010200040404040404040000404040404A8
:10550000040400000810204080000000201008045F
:10551000020100007048080808F000000000303662
:10552000010000C030C828E810E000071827242335
:10553000140B000000C038E0000000203C230202F1
:1055400027382008F8888888700000203F20202015
:10555000110E00C030080808083800071820202065
:1055600010080008F808080810E000203F2020205C
:10557000100F0008F88888E8081000203F2020233A
:1055800020180008F88888E8081000203F20000351
:10559000000000C03008080838000007182020224A
:1055A0001E020008F808000008F808203F21010149
:1055B000213F20000808F8080800000020203F20B4
:1055C00020000000000808F8080800C08080807FE4
:1055D00000000008F888C028180800203F20012695
:1055E00038200008F8080000000000203F2020209C
:1055F00020300008F8F000F008F808203F003F00D5
:10560000203F2008F810608008F808203F200003A1
:10561000263F20E01008080810E0000F102020208E
:10562000100F0008F8888888700000203F200101D2
:10563000010000E01008080810E0000F18242231D3
:10564000504F0008F8888888700000203F2001062D
:10565000392000007088080888300000302021219F
:10566000221C00180808F8080818000000203F2035
:1056700000000008F808000008F808001F2020209B
:10568000201F000878880000C8380800030C30305C
:105690000C030008F800F800F80800003F3C013C4B
:1056A0003F0000081868808068180820302C030329
:1056B0002C30200838C800C83808000000203F20DF
:1056C00000000010080808C83808002038262120EB
:1056D000201800000000FE020202000000007F40CF
:1056E000404000000C30C000000000000000010637
:1056F00038C00000020202FE000000004040407F6F
:10570000000000000004020204000000000000008D
:105710000000000000000000000000808080808009
:1057200080808000020204000000000000000000F1
:1057300000000000008080808000000019242222E8
:10574000223F2008F8008080000000003F11202048
:10575000110E000000808080000000000E1120204B
:10576000201100000000808088F800000E11202029
:10577000103F200000808080800000001F22222235
:10578000221300008080F0888888180020203F20A5
:105790002000000000808080800000000E9190902A
:1057A000917E0008F8008080800000203F210000EA
:1057B000203F2000809898000000000020203F201B
:1057C000200000000000809898000000C0808080C9
:1057D0007F000008F8000080800000203F2402299C
:1057E000302000000808F8000000000020203F20C2
:1057F0002000008080808080808000203F20003F4B
:1058000020003F8080008080800000203F21000039
:10581000203F200000808080800000001F2020208A
:10582000201F00808000808000000080FFA12020D9
:10583000110E000000008080808000000E112020EA
:10584000A0FF808080800080808000203F21200099
:1058500001000000008080808000000033242424A8
:10586000241900008080E0808000000000001F20DC
:105870002000008080000000808000001F20202089
:10588000103F20808080000080808000010E30303A
:105890000E010080800080008080000F300C030C1F
:1058A000300F00008080008080000000211E050570
:1058B0001E210080808000008080800000818E702A
:1058C000000000008080808080800000302C222139
:1058D00030000000000000807C0202000000000098
:1058E0003F404000000000FF00000000000000FFFB
:1058F0000000000002027C800000000040403F00E9
:105900000000000006010102020404000000000083
:105910000000000D0A3D3D3D3D3D3D3D3D3D3D3DD1
:105920003D3D3D3D3D3D3D3D3D3D3D3D3D3D3D3DA7
:105930003D3D3D3D3D3D3D3D3D3D3D3D3D3D3D3D97
:105940003D3D3D3D3D3D3D3D3D3D3D3D0D0A002044
:10595000202043505333324B3231342043414E20C8
:1059600026204F4C45442026205541525420496E54
:105970007465726163746976652044656D6F20207B
:10598000202020200D0A00202020537973436C6BC7
:105990003A2034384D487A207C2043414E204261E1
:1059A00075643A203530306B627073207C2055412D
:1059B00052543A203131353230302020200D0A0047
:1059C000202020535732202850433134293A205385
:1059D000656E642043414E204672616D6520312022
:1059E0002849443A307831323329202020202020A1
:1059F0002020202020200D0A002020205357332073
:105A00002850433135293A2053656E642043414E76
:105A1000204672616D652032202849443A30783240
:105A20003232292020202020202020202020200D5C
:105A30000A0020202043414E2052583A20417574DC
:105A40006F20496E746572727570746564202620CB
:105A500052656672657368656420746F204F4C45AB
:105A6000442F554152542020200D0A000C101418C8
:105A700020304009151500800000000000000000E3
:105A80000000000000000000000000800000000096
:105A900000000000000000400000000000000000C6
:105AA000004000003C00002000000000000000005A
:105AB00000000000000000000000000000000000E6
:105AC00000000000000000000000000000000000D6
:105AD00000000000000000000000000000000000C6
